{
  "_format": "hh-sol-artifact-1",
  "contractName": "MyToken",
  "sourceName": "contracts/MyToken.sol",
  "abi": [
    {
      "inputs": [
        {
          "internalType": "address",
          "name": "initialOwner",
          "type": "address"
        }
      ],
      "stateMutability": "nonpayable",
      "type": "constructor"
    },
    {
      "inputs": [
        {
          "internalType": "address",
          "name": "sender",
          "type": "address"
        },
        {
          "internalType": "uint256",
          "name": "balance",
          "type": "uint256"
        },
        {
          "internalType": "uint256",
          "name": "needed",
          "type": "uint256"
        },
        {
          "internalType": "uint256",
          "name": "tokenId",
          "type": "uint256"
        }
      ],
      "name": "ERC1155InsufficientBalance",
      "type": "error"
    },
    {
      "inputs": [
        {
          "internalType": "address",
          "name": "approver",
          "type": "address"
        }
      ],
      "name": "ERC1155InvalidApprover",
      "type": "error"
    },
    {
      "inputs": [
        {
          "internalType": "uint256",
          "name": "idsLength",
          "type": "uint256"
        },
        {
          "internalType": "uint256",
          "name": "valuesLength",
          "type": "uint256"
        }
      ],
      "name": "ERC1155InvalidArrayLength",
      "type": "error"
    },
    {
      "inputs": [
        {
          "internalType": "address",
          "name": "operator",
          "type": "address"
        }
      ],
      "name": "ERC1155InvalidOperator",
      "type": "error"
    },
    {
      "inputs": [
        {
          "internalType": "address",
          "name": "receiver",
          "type": "address"
        }
      ],
      "name": "ERC1155InvalidReceiver",
      "type": "error"
    },
    {
      "inputs": [
        {
          "internalType": "address",
          "name": "sender",
          "type": "address"
        }
      ],
      "name": "ERC1155InvalidSender",
      "type": "error"
    },
    {
      "inputs": [
        {
          "internalType": "address",
          "name": "operator",
          "type": "address"
        },
        {
          "internalType": "address",
          "name": "owner",
          "type": "address"
        }
      ],
      "name": "ERC1155MissingApprovalForAll",
      "type": "error"
    },
    {
      "inputs": [
        {
          "internalType": "address",
          "name": "owner",
          "type": "address"
        }
      ],
      "name": "OwnableInvalidOwner",
      "type": "error"
    },
    {
      "inputs": [
        {
          "internalType": "address",
          "name": "account",
          "type": "address"
        }
      ],
      "name": "OwnableUnauthorizedAccount",
      "type": "error"
    },
    {
      "anonymous": false,
      "inputs": [
        {
          "indexed": true,
          "internalType": "address",
          "name": "account",
          "type": "address"
        },
        {
          "indexed": true,
          "internalType": "address",
          "name": "operator",
          "type": "address"
        },
        {
          "indexed": false,
          "internalType": "bool",
          "name": "approved",
          "type": "bool"
        }
      ],
      "name": "ApprovalForAll",
      "type": "event"
    },
    {
      "anonymous": false,
      "inputs": [
        {
          "indexed": true,
          "internalType": "address",
          "name": "previousOwner",
          "type": "address"
        },
        {
          "indexed": true,
          "internalType": "address",
          "name": "newOwner",
          "type": "address"
        }
      ],
      "name": "OwnershipTransferred",
      "type": "event"
    },
    {
      "anonymous": false,
      "inputs": [
        {
          "indexed": true,
          "internalType": "address",
          "name": "operator",
          "type": "address"
        },
        {
          "indexed": true,
          "internalType": "address",
          "name": "from",
          "type": "address"
        },
        {
          "indexed": true,
          "internalType": "address",
          "name": "to",
          "type": "address"
        },
        {
          "indexed": false,
          "internalType": "uint256[]",
          "name": "ids",
          "type": "uint256[]"
        },
        {
          "indexed": false,
          "internalType": "uint256[]",
          "name": "values",
          "type": "uint256[]"
        }
      ],
      "name": "TransferBatch",
      "type": "event"
    },
    {
      "anonymous": false,
      "inputs": [
        {
          "indexed": true,
          "internalType": "address",
          "name": "operator",
          "type": "address"
        },
        {
          "indexed": true,
          "internalType": "address",
          "name": "from",
          "type": "address"
        },
        {
          "indexed": true,
          "internalType": "address",
          "name": "to",
          "type": "address"
        },
        {
          "indexed": false,
          "internalType": "uint256",
          "name": "id",
          "type": "uint256"
        },
        {
          "indexed": false,
          "internalType": "uint256",
          "name": "value",
          "type": "uint256"
        }
      ],
      "name": "TransferSingle",
      "type": "event"
    },
    {
      "anonymous": false,
      "inputs": [
        {
          "indexed": false,
          "internalType": "string",
          "name": "value",
          "type": "string"
        },
        {
          "indexed": true,
          "internalType": "uint256",
          "name": "id",
          "type": "uint256"
        }
      ],
      "name": "URI",
      "type": "event"
    },
    {
      "inputs": [],
      "name": "FraktalAccount",
      "outputs": [
        {
          "internalType": "address",
          "name": "",
          "type": "address"
        }
      ],
      "stateMutability": "view",
      "type": "function"
    },
    {
      "inputs": [
        {
          "internalType": "address",
          "name": "account",
          "type": "address"
        },
        {
          "internalType": "uint256",
          "name": "id",
          "type": "uint256"
        }
      ],
      "name": "balanceOf",
      "outputs": [
        {
          "internalType": "uint256",
          "name": "",
          "type": "uint256"
        }
      ],
      "stateMutability": "view",
      "type": "function"
    },
    {
      "inputs": [
        {
          "internalType": "address[]",
          "name": "accounts",
          "type": "address[]"
        },
        {
          "internalType": "uint256[]",
          "name": "ids",
          "type": "uint256[]"
        }
      ],
      "name": "balanceOfBatch",
      "outputs": [
        {
          "internalType": "uint256[]",
          "name": "",
          "type": "uint256[]"
        }
      ],
      "stateMutability": "view",
      "type": "function"
    },
    {
      "inputs": [
        {
          "internalType": "address",
          "name": "account",
          "type": "address"
        },
        {
          "internalType": "uint256",
          "name": "id",
          "type": "uint256"
        },
        {
          "internalType": "uint256",
          "name": "value",
          "type": "uint256"
        }
      ],
      "name": "burn",
      "outputs": [],
      "stateMutability": "nonpayable",
      "type": "function"
    },
    {
      "inputs": [
        {
          "internalType": "address",
          "name": "account",
          "type": "address"
        },
        {
          "internalType": "uint256[]",
          "name": "ids",
          "type": "uint256[]"
        },
        {
          "internalType": "uint256[]",
          "name": "values",
          "type": "uint256[]"
        }
      ],
      "name": "burnBatch",
      "outputs": [],
      "stateMutability": "nonpayable",
      "type": "function"
    },
    {
      "inputs": [
        {
          "internalType": "uint256",
          "name": "id",
          "type": "uint256"
        }
      ],
      "name": "exists",
      "outputs": [
        {
          "internalType": "bool",
          "name": "",
          "type": "bool"
        }
      ],
      "stateMutability": "view",
      "type": "function"
    },
    {
      "inputs": [
        {
          "internalType": "address",
          "name": "account",
          "type": "address"
        },
        {
          "internalType": "address",
          "name": "operator",
          "type": "address"
        }
      ],
      "name": "isApprovedForAll",
      "outputs": [
        {
          "internalType": "bool",
          "name": "",
          "type": "bool"
        }
      ],
      "stateMutability": "view",
      "type": "function"
    },
    {
      "inputs": [
        {
          "internalType": "address",
          "name": "account",
          "type": "address"
        },
        {
          "internalType": "uint256",
          "name": "id",
          "type": "uint256"
        },
        {
          "internalType": "uint256",
          "name": "amount",
          "type": "uint256"
        },
        {
          "internalType": "bytes",
          "name": "data",
          "type": "bytes"
        }
      ],
      "name": "mint",
      "outputs": [],
      "stateMutability": "nonpayable",
      "type": "function"
    },
    {
      "inputs": [
        {
          "internalType": "address",
          "name": "to",
          "type": "address"
        },
        {
          "internalType": "uint256[]",
          "name": "ids",
          "type": "uint256[]"
        },
        {
          "internalType": "uint256[]",
          "name": "amounts",
          "type": "uint256[]"
        },
        {
          "internalType": "bytes",
          "name": "data",
          "type": "bytes"
        }
      ],
      "name": "mintBatch",
      "outputs": [],
      "stateMutability": "nonpayable",
      "type": "function"
    },
    {
      "inputs": [],
      "name": "owner",
      "outputs": [
        {
          "internalType": "address",
          "name": "",
          "type": "address"
        }
      ],
      "stateMutability": "view",
      "type": "function"
    },
    {
      "inputs": [],
      "name": "ownerOfContract",
      "outputs": [
        {
          "internalType": "address",
          "name": "",
          "type": "address"
        }
      ],
      "stateMutability": "view",
      "type": "function"
    },
    {
      "inputs": [],
      "name": "renounceOwnership",
      "outputs": [],
      "stateMutability": "nonpayable",
      "type": "function"
    },
    {
      "inputs": [
        {
          "internalType": "address",
          "name": "from",
          "type": "address"
        },
        {
          "internalType": "address",
          "name": "to",
          "type": "address"
        },
        {
          "internalType": "uint256[]",
          "name": "ids",
          "type": "uint256[]"
        },
        {
          "internalType": "uint256[]",
          "name": "values",
          "type": "uint256[]"
        },
        {
          "internalType": "bytes",
          "name": "data",
          "type": "bytes"
        }
      ],
      "name": "safeBatchTransferFrom",
      "outputs": [],
      "stateMutability": "nonpayable",
      "type": "function"
    },
    {
      "inputs": [
        {
          "internalType": "address",
          "name": "from",
          "type": "address"
        },
        {
          "internalType": "address",
          "name": "to",
          "type": "address"
        },
        {
          "internalType": "uint256",
          "name": "id",
          "type": "uint256"
        },
        {
          "internalType": "uint256",
          "name": "value",
          "type": "uint256"
        },
        {
          "internalType": "bytes",
          "name": "data",
          "type": "bytes"
        }
      ],
      "name": "safeTransferFrom",
      "outputs": [],
      "stateMutability": "nonpayable",
      "type": "function"
    },
    {
      "inputs": [
        {
          "internalType": "address",
          "name": "operator",
          "type": "address"
        },
        {
          "internalType": "bool",
          "name": "approved",
          "type": "bool"
        }
      ],
      "name": "setApprovalForAll",
      "outputs": [],
      "stateMutability": "nonpayable",
      "type": "function"
    },
    {
      "inputs": [
        {
          "internalType": "string",
          "name": "newuri",
          "type": "string"
        }
      ],
      "name": "setURI",
      "outputs": [],
      "stateMutability": "nonpayable",
      "type": "function"
    },
    {
      "inputs": [
        {
          "internalType": "bytes4",
          "name": "interfaceId",
          "type": "bytes4"
        }
      ],
      "name": "supportsInterface",
      "outputs": [
        {
          "internalType": "bool",
          "name": "",
          "type": "bool"
        }
      ],
      "stateMutability": "view",
      "type": "function"
    },
    {
      "inputs": [],
      "name": "totalSupply",
      "outputs": [
        {
          "internalType": "uint256",
          "name": "",
          "type": "uint256"
        }
      ],
      "stateMutability": "view",
      "type": "function"
    },
    {
      "inputs": [
        {
          "internalType": "uint256",
          "name": "id",
          "type": "uint256"
        }
      ],
      "name": "totalSupply",
      "outputs": [
        {
          "internalType": "uint256",
          "name": "",
          "type": "uint256"
        }
      ],
      "stateMutability": "view",
      "type": "function"
    },
    {
      "inputs": [
        {
          "internalType": "address",
          "name": "newOwner",
          "type": "address"
        }
      ],
      "name": "transferOwnership",
      "outputs": [],
      "stateMutability": "nonpayable",
      "type": "function"
    },
    {
      "inputs": [
        {
          "internalType": "uint256",
          "name": "",
          "type": "uint256"
        }
      ],
      "name": "uri",
      "outputs": [
        {
          "internalType": "string",
          "name": "",
          "type": "string"
        }
      ],
      "stateMutability": "view",
      "type": "function"
    },
    {
      "stateMutability": "payable",
      "type": "receive"
    }
  ],
  "bytecode": "0x6080604052738cbc19a354e42b7b4765ab3342daf9d834e56947600760006101000a81548173ffffffffffffffffffffffffffffffffffffffff021916908373ffffffffffffffffffffffffffffffffffffffff1602179055503480156200006657600080fd5b5060405162003a6d38038062003a6d83398181016040528101906200008c919062000304565b8060405180602001604052806000815250620000ae81620001bf60201b60201c565b50600073ffffffffffffffffffffffffffffffffffffffff168173ffffffffffffffffffffffffffffffffffffffff1603620001245760006040517f1e4fbdf70000000000000000000000000000000000000000000000000000000081526004016200011b919062000347565b60405180910390fd5b6200013581620001d460201b60201c565b5033600660006101000a81548173ffffffffffffffffffffffffffffffffffffffff021916908373ffffffffffffffffffffffffffffffffffffffff16021790555033600660006101000a81548173ffffffffffffffffffffffffffffffffffffffff021916908373ffffffffffffffffffffffffffffffffffffffff16021790555050620006c5565b8060029081620001d09190620005de565b5050565b6000600360009054906101000a900473ffffffffffffffffffffffffffffffffffffffff16905081600360006101000a81548173ffffffffffffffffffffffffffffffffffffffff021916908373ffffffffffffffffffffffffffffffffffffffff1602179055508173ffffffffffffffffffffffffffffffffffffffff168173ffffffffffffffffffffffffffffffffffffffff167f8be0079c531659141344cd1fd0a4f28419497f9722a3daafe3b4186f6b6457e060405160405180910390a35050565b600080fd5b600073ffffffffffffffffffffffffffffffffffffffff82169050919050565b6000620002cc826200029f565b9050919050565b620002de81620002bf565b8114620002ea57600080fd5b50565b600081519050620002fe81620002d3565b92915050565b6000602082840312156200031d576200031c6200029a565b5b60006200032d84828501620002ed565b91505092915050565b6200034181620002bf565b82525050565b60006020820190506200035e600083018462000336565b92915050565b600081519050919050565b7f4e487b7100000000000000000000000000000000000000000000000000000000600052604160045260246000fd5b7f4e487b7100000000000000000000000000000000000000000000000000000000600052602260045260246000fd5b60006002820490506001821680620003e657607f821691505b602082108103620003fc57620003fb6200039e565b5b50919050565b60008190508160005260206000209050919050565b60006020601f8301049050919050565b600082821b905092915050565b600060088302620004667fffffffffffffffffffffffffffffffffffffffffffffffffffffffffffffffff8262000427565b62000472868362000427565b95508019841693508086168417925050509392505050565b6000819050919050565b6000819050919050565b6000620004bf620004b9620004b3846200048a565b62000494565b6200048a565b9050919050565b6000819050919050565b620004db836200049e565b620004f3620004ea82620004c6565b84845462000434565b825550505050565b600090565b6200050a620004fb565b62000517818484620004d0565b505050565b5b818110156200053f576200053360008262000500565b6001810190506200051d565b5050565b601f8211156200058e57620005588162000402565b620005638462000417565b8101602085101562000573578190505b6200058b620005828562000417565b8301826200051c565b50505b505050565b600082821c905092915050565b6000620005b36000198460080262000593565b1980831691505092915050565b6000620005ce8383620005a0565b9150826002028217905092915050565b620005e98262000364565b67ffffffffffffffff8111156200060557620006046200036f565b5b620006118254620003cd565b6200061e82828562000543565b600060209050601f83116001811462000656576000841562000641578287015190505b6200064d8582620005c0565b865550620006bd565b601f198416620006668662000402565b60005b82811015620006905784890151825560018201915060208501945060208101905062000669565b86831015620006b05784890151620006ac601f891682620005a0565b8355505b6001600288020188555050505b505050505050565b61339880620006d56000396000f3fe60806040526004361061012d5760003560e01c80636b20c454116100ab578063bd85b0391161006f578063bd85b039146103f8578063e985e9c514610435578063eb2741a314610472578063f242432a1461049d578063f2fde38b146104c6578063f5298aca146104ef57610134565b80636b20c4541461033b578063715018a614610364578063731133e91461037b5780638da5cb5b146103a4578063a22cb465146103cf57610134565b80631f7fdffa116100f25780631f7fdffa146102445780632eb2c2d61461026d578063468229ae146102965780634e1273f4146102c15780634f558e79146102fe57610134565b8062fdd58e1461013957806301ffc9a71461017657806302fe5305146101b35780630e89341c146101dc57806318160ddd1461021957610134565b3661013457005b600080fd5b34801561014557600080fd5b50610160600480360381019061015b919061218c565b610518565b60405161016d91906121db565b60405180910390f35b34801561018257600080fd5b5061019d6004803603810190610198919061224e565b610572565b6040516101aa9190612296565b60405180910390f35b3480156101bf57600080fd5b506101da60048036038101906101d591906123f7565b610654565b005b3480156101e857600080fd5b5061020360048036038101906101fe9190612440565b610748565b60405161021091906124ec565b60405180910390f35b34801561022557600080fd5b5061022e6107dc565b60405161023b91906121db565b60405180910390f35b34801561025057600080fd5b5061026b60048036038101906102669190612677565b6107e6565b005b34801561027957600080fd5b50610294600480360381019061028f9190612732565b6108e0565b005b3480156102a257600080fd5b506102ab610988565b6040516102b89190612810565b60405180910390f35b3480156102cd57600080fd5b506102e860048036038101906102e391906128ee565b6109ae565b6040516102f59190612a24565b60405180910390f35b34801561030a57600080fd5b5061032560048036038101906103209190612440565b610abd565b6040516103329190612296565b60405180910390f35b34801561034757600080fd5b50610362600480360381019061035d9190612a46565b610ad1565b005b34801561037057600080fd5b50610379610b7d565b005b34801561038757600080fd5b506103a2600480360381019061039d9190612ad1565b610b91565b005b3480156103b057600080fd5b506103b9610c8b565b6040516103c69190612810565b60405180910390f35b3480156103db57600080fd5b506103f660048036038101906103f19190612b80565b610cb5565b005b34801561040457600080fd5b5061041f600480360381019061041a9190612440565b610ccb565b60405161042c91906121db565b60405180910390f35b34801561044157600080fd5b5061045c60048036038101906104579190612bc0565b610ce8565b6040516104699190612296565b60405180910390f35b34801561047e57600080fd5b50610487610d7c565b6040516104949190612810565b60405180910390f35b3480156104a957600080fd5b506104c460048036038101906104bf9190612c00565b610da2565b005b3480156104d257600080fd5b506104ed60048036038101906104e89190612c97565b610e4a565b005b3480156104fb57600080fd5b5061051660048036038101906105119190612cc4565b610ed0565b005b600080600083815260200190815260200160002060008473ffffffffffffffffffffffffffffffffffffffff1673ffffffffffffffffffffffffffffffffffffffff16815260200190815260200160002054905092915050565b60007fd9b67a26000000000000000000000000000000000000000000000000000000007bffffffffffffffffffffffffffffffffffffffffffffffffffffffff1916827bffffffffffffffffffffffffffffffffffffffffffffffffffffffff1916148061063d57507f0e89341c000000000000000000000000000000000000000000000000000000007bffffffffffffffffffffffffffffffffffffffffffffffffffffffff1916827bffffffffffffffffffffffffffffffffffffffffffffffffffffffff1916145b8061064d575061064c82610f7c565b5b9050919050565b600660009054906101000a900473ffffffffffffffffffffffffffffffffffffffff1673ffffffffffffffffffffffffffffffffffffffff163373ffffffffffffffffffffffffffffffffffffffff1614806106fd5750600760009054906101000a900473ffffffffffffffffffffffffffffffffffffffff1673ffffffffffffffffffffffffffffffffffffffff163373ffffffffffffffffffffffffffffffffffffffff16145b61073c576040517f08c379a000000000000000000000000000000000000000000000000000000000815260040161073390612d63565b60405180910390fd5b61074581610fe6565b50565b60606002805461075790612db2565b80601f016020809104026020016040519081016040528092919081815260200182805461078390612db2565b80156107d05780601f106107a5576101008083540402835291602001916107d0565b820191906000526020600020905b8154815290600101906020018083116107b357829003601f168201915b50505050509050919050565b6000600554905090565b600660009054906101000a900473ffffffffffffffffffffffffffffffffffffffff1673ffffffffffffffffffffffffffffffffffffffff163373ffffffffffffffffffffffffffffffffffffffff16148061088f5750600760009054906101000a900473ffffffffffffffffffffffffffffffffffffffff1673ffffffffffffffffffffffffffffffffffffffff163373ffffffffffffffffffffffffffffffffffffffff16145b6108ce576040517f08c379a00000000000000000000000000000000000000000000000000000000081526004016108c590612d63565b60405180910390fd5b6108da84848484610ff9565b50505050565b60006108ea61107f565b90508073ffffffffffffffffffffffffffffffffffffffff168673ffffffffffffffffffffffffffffffffffffffff161415801561092f575061092d8682610ce8565b155b156109735780866040517fe237d92200000000000000000000000000000000000000000000000000000000815260040161096a929190612de3565b60405180910390fd5b6109808686868686611087565b505050505050565b600660009054906101000a900473ffffffffffffffffffffffffffffffffffffffff1681565b606081518351146109fa57815183516040517f5b0599910000000000000000000000000000000000000000000000000000000081526004016109f1929190612e0c565b60405180910390fd5b6000835167ffffffffffffffff811115610a1757610a166122cc565b5b604051908082528060200260200182016040528015610a455781602001602082028036833780820191505090505b50905060005b8451811015610ab257610a82610a6a828761117f90919063ffffffff16565b610a7d838761119390919063ffffffff16565b610518565b828281518110610a9557610a94612e35565b5b60200260200101818152505080610aab90612e93565b9050610a4b565b508091505092915050565b600080610ac983610ccb565b119050919050565b610ad961107f565b73ffffffffffffffffffffffffffffffffffffffff168373ffffffffffffffffffffffffffffffffffffffff1614158015610b225750610b2083610b1b61107f565b610ce8565b155b15610b6d57610b2f61107f565b836040517fe237d922000000000000000000000000000000000000000000000000000000008152600401610b64929190612de3565b60405180910390fd5b610b788383836111a7565b505050565b610b8561123b565b610b8f60006112c2565b565b600660009054906101000a900473ffffffffffffffffffffffffffffffffffffffff1673ffffffffffffffffffffffffffffffffffffffff163373ffffffffffffffffffffffffffffffffffffffff161480610c3a5750600760009054906101000a900473ffffffffffffffffffffffffffffffffffffffff1673ffffffffffffffffffffffffffffffffffffffff163373ffffffffffffffffffffffffffffffffffffffff16145b610c79576040517f08c379a0000000000000000000000000000000000000000000000000000000008152600401610c7090612d63565b60405180910390fd5b610c8584848484611388565b50505050565b6000600360009054906101000a900473ffffffffffffffffffffffffffffffffffffffff16905090565b610cc7610cc061107f565b8383611421565b5050565b600060046000838152602001908152602001600020549050919050565b6000600160008473ffffffffffffffffffffffffffffffffffffffff1673ffffffffffffffffffffffffffffffffffffffff16815260200190815260200160002060008373ffffffffffffffffffffffffffffffffffffffff1673ffffffffffffffffffffffffffffffffffffffff16815260200190815260200160002060009054906101000a900460ff16905092915050565b600760009054906101000a900473ffffffffffffffffffffffffffffffffffffffff1681565b6000610dac61107f565b90508073ffffffffffffffffffffffffffffffffffffffff168673ffffffffffffffffffffffffffffffffffffffff1614158015610df15750610def8682610ce8565b155b15610e355780866040517fe237d922000000000000000000000000000000000000000000000000000000008152600401610e2c929190612de3565b60405180910390fd5b610e428686868686611591565b505050505050565b610e5261123b565b600073ffffffffffffffffffffffffffffffffffffffff168173ffffffffffffffffffffffffffffffffffffffff1603610ec45760006040517f1e4fbdf7000000000000000000000000000000000000000000000000000000008152600401610ebb9190612810565b60405180910390fd5b610ecd816112c2565b50565b610ed861107f565b73ffffffffffffffffffffffffffffffffffffffff168373ffffffffffffffffffffffffffffffffffffffff1614158015610f215750610f1f83610f1a61107f565b610ce8565b155b15610f6c57610f2e61107f565b836040517fe237d922000000000000000000000000000000000000000000000000000000008152600401610f63929190612de3565b60405180910390fd5b610f7783838361169c565b505050565b60007f01ffc9a7000000000000000000000000000000000000000000000000000000007bffffffffffffffffffffffffffffffffffffffffffffffffffffffff1916827bffffffffffffffffffffffffffffffffffffffffffffffffffffffff1916149050919050565b8060029081610ff59190613087565b5050565b600073ffffffffffffffffffffffffffffffffffffffff168473ffffffffffffffffffffffffffffffffffffffff160361106b5760006040517f57f447ce0000000000000000000000000000000000000000000000000000000081526004016110629190612810565b60405180910390fd5b611079600085858585611743565b50505050565b600033905090565b600073ffffffffffffffffffffffffffffffffffffffff168473ffffffffffffffffffffffffffffffffffffffff16036110f95760006040517f57f447ce0000000000000000000000000000000000000000000000000000000081526004016110f09190612810565b60405180910390fd5b600073ffffffffffffffffffffffffffffffffffffffff168573ffffffffffffffffffffffffffffffffffffffff160361116b5760006040517f01a835140000000000000000000000000000000000000000000000000000000081526004016111629190612810565b60405180910390fd5b6111788585858585611743565b5050505050565b600060208202602084010151905092915050565b600060208202602084010151905092915050565b600073ffffffffffffffffffffffffffffffffffffffff168373ffffffffffffffffffffffffffffffffffffffff16036112195760006040517f01a835140000000000000000000000000000000000000000000000000000000081526004016112109190612810565b60405180910390fd5b611236836000848460405180602001604052806000815250611743565b505050565b61124361107f565b73ffffffffffffffffffffffffffffffffffffffff16611261610c8b565b73ffffffffffffffffffffffffffffffffffffffff16146112c05761128461107f565b6040517f118cdaa70000000000000000000000000000000000000000000000000000000081526004016112b79190612810565b60405180910390fd5b565b6000600360009054906101000a900473ffffffffffffffffffffffffffffffffffffffff16905081600360006101000a81548173ffffffffffffffffffffffffffffffffffffffff021916908373ffffffffffffffffffffffffffffffffffffffff1602179055508173ffffffffffffffffffffffffffffffffffffffff168173ffffffffffffffffffffffffffffffffffffffff167f8be0079c531659141344cd1fd0a4f28419497f9722a3daafe3b4186f6b6457e060405160405180910390a35050565b600073ffffffffffffffffffffffffffffffffffffffff168473ffffffffffffffffffffffffffffffffffffffff16036113fa5760006040517f57f447ce0000000000000000000000000000000000000000000000000000000081526004016113f19190612810565b60405180910390fd5b60008061140785856117f5565b91509150611419600087848487611743565b505050505050565b600073ffffffffffffffffffffffffffffffffffffffff168273ffffffffffffffffffffffffffffffffffffffff16036114935760006040517fced3e10000000000000000000000000000000000000000000000000000000000815260040161148a9190612810565b60405180910390fd5b80600160008573ffffffffffffffffffffffffffffffffffffffff1673ffffffffffffffffffffffffffffffffffffffff16815260200190815260200160002060008473ffffffffffffffffffffffffffffffffffffffff1673ffffffffffffffffffffffffffffffffffffffff16815260200190815260200160002060006101000a81548160ff0219169083151502179055508173ffffffffffffffffffffffffffffffffffffffff168373ffffffffffffffffffffffffffffffffffffffff167f17307eab39ab6107e8899845ad3d59bd9653f200f220920489ca2b5937696c31836040516115849190612296565b60405180910390a3505050565b600073ffffffffffffffffffffffffffffffffffffffff168473ffffffffffffffffffffffffffffffffffffffff16036116035760006040517f57f447ce0000000000000000000000000000000000000000000000000000000081526004016115fa9190612810565b60405180910390fd5b600073ffffffffffffffffffffffffffffffffffffffff168573ffffffffffffffffffffffffffffffffffffffff16036116755760006040517f01a8351400000000000000000000000000000000000000000000000000000000815260040161166c9190612810565b60405180910390fd5b60008061168285856117f5565b915091506116938787848487611743565b50505050505050565b600073ffffffffffffffffffffffffffffffffffffffff168373ffffffffffffffffffffffffffffffffffffffff160361170e5760006040517f01a835140000000000000000000000000000000000000000000000000000000081526004016117059190612810565b60405180910390fd5b60008061171b84846117f5565b9150915061173c856000848460405180602001604052806000815250611743565b5050505050565b61174f85858585611825565b600073ffffffffffffffffffffffffffffffffffffffff168473ffffffffffffffffffffffffffffffffffffffff16146117ee57600061178d61107f565b905060018451036117dd5760006117ae60008661119390919063ffffffff16565b905060006117c660008661119390919063ffffffff16565b90506117d6838989858589611837565b50506117ec565b6117eb8187878787876119eb565b5b505b5050505050565b60608060405191506001825283602083015260408201905060018152826020820152604081016040529250929050565b61183184848484611b9f565b50505050565b60008473ffffffffffffffffffffffffffffffffffffffff163b11156119e3578373ffffffffffffffffffffffffffffffffffffffff1663f23a6e6187878686866040518663ffffffff1660e01b81526004016118989594939291906131ae565b6020604051808303816000875af19250505080156118d457506040513d601f19601f820116820180604052508101906118d1919061321d565b60015b611958573d8060008114611904576040519150601f19603f3d011682016040523d82523d6000602084013e611909565b606091505b50600081510361195057846040517f57f447ce0000000000000000000000000000000000000000000000000000000081526004016119479190612810565b60405180910390fd5b805181602001fd5b63f23a6e6160e01b7bffffffffffffffffffffffffffffffffffffffffffffffffffffffff1916817bffffffffffffffffffffffffffffffffffffffffffffffffffffffff1916146119e157846040517f57f447ce0000000000000000000000000000000000000000000000000000000081526004016119d89190612810565b60405180910390fd5b505b505050505050565b60008473ffffffffffffffffffffffffffffffffffffffff163b1115611b97578373ffffffffffffffffffffffffffffffffffffffff1663bc197c8187878686866040518663ffffffff1660e01b8152600401611a4c95949392919061324a565b6020604051808303816000875af1925050508015611a8857506040513d601f19601f82011682018060405250810190611a85919061321d565b60015b611b0c573d8060008114611ab8576040519150601f19603f3d011682016040523d82523d6000602084013e611abd565b606091505b506000815103611b0457846040517f57f447ce000000000000000000000000000000000000000000000000000000008152600401611afb9190612810565b60405180910390fd5b805181602001fd5b63bc197c8160e01b7bffffffffffffffffffffffffffffffffffffffffffffffffffffffff1916817bffffffffffffffffffffffffffffffffffffffffffffffffffffffff191614611b9557846040517f57f447ce000000000000000000000000000000000000000000000000000000008152600401611b8c9190612810565b60405180910390fd5b505b505050505050565b611bab84848484611d36565b600073ffffffffffffffffffffffffffffffffffffffff168473ffffffffffffffffffffffffffffffffffffffff1603611c7b576000805b8351811015611c5f576000611c01828561119390919063ffffffff16565b90508060046000611c1b858961119390919063ffffffff16565b81526020019081526020016000206000828254611c3891906132b2565b925050819055508083611c4b91906132b2565b92505080611c5890612e93565b9050611be3565b508060056000828254611c7291906132b2565b92505081905550505b600073ffffffffffffffffffffffffffffffffffffffff168373ffffffffffffffffffffffffffffffffffffffff1603611d30576000805b8351811015611d1d576000611cd1828561119390919063ffffffff16565b90508060046000611ceb858961119390919063ffffffff16565b81526020019081526020016000206000828254039250508190555080830192505080611d1690612e93565b9050611cb3565b5080600560008282540392505081905550505b50505050565b8051825114611d8057815181516040517f5b059991000000000000000000000000000000000000000000000000000000008152600401611d77929190612e0c565b60405180910390fd5b6000611d8a61107f565b905060005b8351811015611f9f576000611dad828661119390919063ffffffff16565b90506000611dc4838661119390919063ffffffff16565b9050600073ffffffffffffffffffffffffffffffffffffffff168873ffffffffffffffffffffffffffffffffffffffff1614611ef157600080600084815260200190815260200160002060008a73ffffffffffffffffffffffffffffffffffffffff1673ffffffffffffffffffffffffffffffffffffffff16815260200190815260200160002054905081811015611e9957888183856040517f03dee4c5000000000000000000000000000000000000000000000000000000008152600401611e9094939291906132e6565b60405180910390fd5b81810360008085815260200190815260200160002060008b73ffffffffffffffffffffffffffffffffffffffff1673ffffffffffffffffffffffffffffffffffffffff16815260200190815260200160002081905550505b600073ffffffffffffffffffffffffffffffffffffffff168773ffffffffffffffffffffffffffffffffffffffff1614611f8c578060008084815260200190815260200160002060008973ffffffffffffffffffffffffffffffffffffffff1673ffffffffffffffffffffffffffffffffffffffff1681526020019081526020016000206000828254611f8491906132b2565b925050819055505b505080611f9890612e93565b9050611d8f565b50600183510361205e576000611fbf60008561119390919063ffffffff16565b90506000611fd760008561119390919063ffffffff16565b90508573ffffffffffffffffffffffffffffffffffffffff168773ffffffffffffffffffffffffffffffffffffffff168473ffffffffffffffffffffffffffffffffffffffff167fc3d58168c5ae7397731d063d5bbf3d657854427343f4c083240f7aacaa2d0f62858560405161204f929190612e0c565b60405180910390a450506120dd565b8373ffffffffffffffffffffffffffffffffffffffff168573ffffffffffffffffffffffffffffffffffffffff168273ffffffffffffffffffffffffffffffffffffffff167f4a39dc06d4c0dbc64b70af90fd698a233a518aa5d07e595d983b8c0526c8f7fb86866040516120d492919061332b565b60405180910390a45b5050505050565b6000604051905090565b600080fd5b600080fd5b600073ffffffffffffffffffffffffffffffffffffffff82169050919050565b6000612123826120f8565b9050919050565b61213381612118565b811461213e57600080fd5b50565b6000813590506121508161212a565b92915050565b6000819050919050565b61216981612156565b811461217457600080fd5b50565b60008135905061218681612160565b92915050565b600080604083850312156121a3576121a26120ee565b5b60006121b185828601612141565b92505060206121c285828601612177565b9150509250929050565b6121d581612156565b82525050565b60006020820190506121f060008301846121cc565b92915050565b60007fffffffff0000000000000000000000000000000000000000000000000000000082169050919050565b61222b816121f6565b811461223657600080fd5b50565b60008135905061224881612222565b92915050565b600060208284031215612264576122636120ee565b5b600061227284828501612239565b91505092915050565b60008115159050919050565b6122908161227b565b82525050565b60006020820190506122ab6000830184612287565b92915050565b600080fd5b600080fd5b6000601f19601f8301169050919050565b7f4e487b7100000000000000000000000000000000000000000000000000000000600052604160045260246000fd5b612304826122bb565b810181811067ffffffffffffffff82111715612323576123226122cc565b5b80604052505050565b60006123366120e4565b905061234282826122fb565b919050565b600067ffffffffffffffff821115612362576123616122cc565b5b61236b826122bb565b9050602081019050919050565b82818337600083830152505050565b600061239a61239584612347565b61232c565b9050828152602081018484840111156123b6576123b56122b6565b5b6123c1848285612378565b509392505050565b600082601f8301126123de576123dd6122b1565b5b81356123ee848260208601612387565b91505092915050565b60006020828403121561240d5761240c6120ee565b5b600082013567ffffffffffffffff81111561242b5761242a6120f3565b5b612437848285016123c9565b91505092915050565b600060208284031215612456576124556120ee565b5b600061246484828501612177565b91505092915050565b600081519050919050565b600082825260208201905092915050565b60005b838110156124a757808201518184015260208101905061248c565b60008484015250505050565b60006124be8261246d565b6124c88185612478565b93506124d8818560208601612489565b6124e1816122bb565b840191505092915050565b6000602082019050818103600083015261250681846124b3565b905092915050565b600067ffffffffffffffff821115612529576125286122cc565b5b602082029050602081019050919050565b600080fd5b600061255261254d8461250e565b61232c565b905080838252602082019050602084028301858111156125755761257461253a565b5b835b8181101561259e578061258a8882612177565b845260208401935050602081019050612577565b5050509392505050565b600082601f8301126125bd576125bc6122b1565b5b81356125cd84826020860161253f565b91505092915050565b600067ffffffffffffffff8211156125f1576125f06122cc565b5b6125fa826122bb565b9050602081019050919050565b600061261a612615846125d6565b61232c565b905082815260208101848484011115612636576126356122b6565b5b612641848285612378565b509392505050565b600082601f83011261265e5761265d6122b1565b5b813561266e848260208601612607565b91505092915050565b60008060008060808587031215612691576126906120ee565b5b600061269f87828801612141565b945050602085013567ffffffffffffffff8111156126c0576126bf6120f3565b5b6126cc878288016125a8565b935050604085013567ffffffffffffffff8111156126ed576126ec6120f3565b5b6126f9878288016125a8565b925050606085013567ffffffffffffffff81111561271a576127196120f3565b5b61272687828801612649565b91505092959194509250565b600080600080600060a0868803121561274e5761274d6120ee565b5b600061275c88828901612141565b955050602061276d88828901612141565b945050604086013567ffffffffffffffff81111561278e5761278d6120f3565b5b61279a888289016125a8565b935050606086013567ffffffffffffffff8111156127bb576127ba6120f3565b5b6127c7888289016125a8565b925050608086013567ffffffffffffffff8111156127e8576127e76120f3565b5b6127f488828901612649565b9150509295509295909350565b61280a81612118565b82525050565b60006020820190506128256000830184612801565b92915050565b600067ffffffffffffffff821115612846576128456122cc565b5b602082029050602081019050919050565b600061286a6128658461282b565b61232c565b9050808382526020820190506020840283018581111561288d5761288c61253a565b5b835b818110156128b657806128a28882612141565b84526020840193505060208101905061288f565b5050509392505050565b600082601f8301126128d5576128d46122b1565b5b81356128e5848260208601612857565b91505092915050565b60008060408385031215612905576129046120ee565b5b600083013567ffffffffffffffff811115612923576129226120f3565b5b61292f858286016128c0565b925050602083013567ffffffffffffffff8111156129505761294f6120f3565b5b61295c858286016125a8565b9150509250929050565b600081519050919050565b600082825260208201905092915050565b6000819050602082019050919050565b61299b81612156565b82525050565b60006129ad8383612992565b60208301905092915050565b6000602082019050919050565b60006129d182612966565b6129db8185612971565b93506129e683612982565b8060005b83811015612a175781516129fe88826129a1565b9750612a09836129b9565b9250506001810190506129ea565b5085935050505092915050565b60006020820190508181036000830152612a3e81846129c6565b905092915050565b600080600060608486031215612a5f57612a5e6120ee565b5b6000612a6d86828701612141565b935050602084013567ffffffffffffffff811115612a8e57612a8d6120f3565b5b612a9a868287016125a8565b925050604084013567ffffffffffffffff811115612abb57612aba6120f3565b5b612ac7868287016125a8565b9150509250925092565b60008060008060808587031215612aeb57612aea6120ee565b5b6000612af987828801612141565b9450506020612b0a87828801612177565b9350506040612b1b87828801612177565b925050606085013567ffffffffffffffff811115612b3c57612b3b6120f3565b5b612b4887828801612649565b91505092959194509250565b612b5d8161227b565b8114612b6857600080fd5b50565b600081359050612b7a81612b54565b92915050565b60008060408385031215612b9757612b966120ee565b5b6000612ba585828601612141565b9250506020612bb685828601612b6b565b9150509250929050565b60008060408385031215612bd757612bd66120ee565b5b6000612be585828601612141565b9250506020612bf685828601612141565b9150509250929050565b600080600080600060a08688031215612c1c57612c1b6120ee565b5b6000612c2a88828901612141565b9550506020612c3b88828901612141565b9450506040612c4c88828901612177565b9350506060612c5d88828901612177565b925050608086013567ffffffffffffffff811115612c7e57612c7d6120f3565b5b612c8a88828901612649565b9150509295509295909350565b600060208284031215612cad57612cac6120ee565b5b6000612cbb84828501612141565b91505092915050565b600080600060608486031215612cdd57612cdc6120ee565b5b6000612ceb86828701612141565b9350506020612cfc86828701612177565b9250506040612d0d86828701612177565b9150509250925092565b7f4e6f74204f776e65720000000000000000000000000000000000000000000000600082015250565b6000612d4d600983612478565b9150612d5882612d17565b602082019050919050565b60006020820190508181036000830152612d7c81612d40565b9050919050565b7f4e487b7100000000000000000000000000000000000000000000000000000000600052602260045260246000fd5b60006002820490506001821680612dca57607f821691505b602082108103612ddd57612ddc612d83565b5b50919050565b6000604082019050612df86000830185612801565b612e056020830184612801565b9392505050565b6000604082019050612e2160008301856121cc565b612e2e60208301846121cc565b9392505050565b7f4e487b7100000000000000000000000000000000000000000000000000000000600052603260045260246000fd5b7f4e487b7100000000000000000000000000000000000000000000000000000000600052601160045260246000fd5b6000612e9e82612156565b91507fffffffffffffffffffffffffffffffffffffffffffffffffffffffffffffffff8203612ed057612ecf612e64565b5b600182019050919050565b60008190508160005260206000209050919050565b60006020601f8301049050919050565b600082821b905092915050565b600060088302612f3d7fffffffffffffffffffffffffffffffffffffffffffffffffffffffffffffffff82612f00565b612f478683612f00565b95508019841693508086168417925050509392505050565b6000819050919050565b6000612f84612f7f612f7a84612156565b612f5f565b612156565b9050919050565b6000819050919050565b612f9e83612f69565b612fb2612faa82612f8b565b848454612f0d565b825550505050565b600090565b612fc7612fba565b612fd2818484612f95565b505050565b5b81811015612ff657612feb600082612fbf565b600181019050612fd8565b5050565b601f82111561303b5761300c81612edb565b61301584612ef0565b81016020851015613024578190505b61303861303085612ef0565b830182612fd7565b50505b505050565b600082821c905092915050565b600061305e60001984600802613040565b1980831691505092915050565b6000613077838361304d565b9150826002028217905092915050565b6130908261246d565b67ffffffffffffffff8111156130a9576130a86122cc565b5b6130b38254612db2565b6130be828285612ffa565b600060209050601f8311600181146130f157600084156130df578287015190505b6130e9858261306b565b865550613151565b601f1984166130ff86612edb565b60005b8281101561312757848901518255600182019150602085019450602081019050613102565b868310156131445784890151613140601f89168261304d565b8355505b6001600288020188555050505b505050505050565b600081519050919050565b600082825260208201905092915050565b600061318082613159565b61318a8185613164565b935061319a818560208601612489565b6131a3816122bb565b840191505092915050565b600060a0820190506131c36000830188612801565b6131d06020830187612801565b6131dd60408301866121cc565b6131ea60608301856121cc565b81810360808301526131fc8184613175565b90509695505050505050565b60008151905061321781612222565b92915050565b600060208284031215613233576132326120ee565b5b600061324184828501613208565b91505092915050565b600060a08201905061325f6000830188612801565b61326c6020830187612801565b818103604083015261327e81866129c6565b9050818103606083015261329281856129c6565b905081810360808301526132a68184613175565b90509695505050505050565b60006132bd82612156565b91506132c883612156565b92508282019050808211156132e0576132df612e64565b5b92915050565b60006080820190506132fb6000830187612801565b61330860208301866121cc565b61331560408301856121cc565b61332260608301846121cc565b95945050505050565b6000604082019050818103600083015261334581856129c6565b9050818103602083015261335981846129c6565b9050939250505056fea2646970667358221220917fe1c58616e5e614cf69ecf95051e1fd1087c47e7b65e9e33cbaaf725cb6cc64736f6c63430008140033",
  "linkReferences": {},
  "deployedLinkReferences": {}
}