{
  "_format": "hh-sol-artifact-1",
  "contractName": "MyToken",
  "sourceName": "contracts/MyToken.sol",
  "abi": [
    {
      "inputs": [
        {
          "internalType": "address",
          "name": "initialOwner",
          "type": "address"
        }
      ],
      "stateMutability": "nonpayable",
      "type": "constructor"
    },
    {
      "inputs": [
        {
          "internalType": "address",
          "name": "sender",
          "type": "address"
        },
        {
          "internalType": "uint256",
          "name": "balance",
          "type": "uint256"
        },
        {
          "internalType": "uint256",
          "name": "needed",
          "type": "uint256"
        },
        {
          "internalType": "uint256",
          "name": "tokenId",
          "type": "uint256"
        }
      ],
      "name": "ERC1155InsufficientBalance",
      "type": "error"
    },
    {
      "inputs": [
        {
          "internalType": "address",
          "name": "approver",
          "type": "address"
        }
      ],
      "name": "ERC1155InvalidApprover",
      "type": "error"
    },
    {
      "inputs": [
        {
          "internalType": "uint256",
          "name": "idsLength",
          "type": "uint256"
        },
        {
          "internalType": "uint256",
          "name": "valuesLength",
          "type": "uint256"
        }
      ],
      "name": "ERC1155InvalidArrayLength",
      "type": "error"
    },
    {
      "inputs": [
        {
          "internalType": "address",
          "name": "operator",
          "type": "address"
        }
      ],
      "name": "ERC1155InvalidOperator",
      "type": "error"
    },
    {
      "inputs": [
        {
          "internalType": "address",
          "name": "receiver",
          "type": "address"
        }
      ],
      "name": "ERC1155InvalidReceiver",
      "type": "error"
    },
    {
      "inputs": [
        {
          "internalType": "address",
          "name": "sender",
          "type": "address"
        }
      ],
      "name": "ERC1155InvalidSender",
      "type": "error"
    },
    {
      "inputs": [
        {
          "internalType": "address",
          "name": "operator",
          "type": "address"
        },
        {
          "internalType": "address",
          "name": "owner",
          "type": "address"
        }
      ],
      "name": "ERC1155MissingApprovalForAll",
      "type": "error"
    },
    {
      "inputs": [
        {
          "internalType": "address",
          "name": "owner",
          "type": "address"
        }
      ],
      "name": "OwnableInvalidOwner",
      "type": "error"
    },
    {
      "inputs": [
        {
          "internalType": "address",
          "name": "account",
          "type": "address"
        }
      ],
      "name": "OwnableUnauthorizedAccount",
      "type": "error"
    },
    {
      "anonymous": false,
      "inputs": [
        {
          "indexed": true,
          "internalType": "address",
          "name": "account",
          "type": "address"
        },
        {
          "indexed": true,
          "internalType": "address",
          "name": "operator",
          "type": "address"
        },
        {
          "indexed": false,
          "internalType": "bool",
          "name": "approved",
          "type": "bool"
        }
      ],
      "name": "ApprovalForAll",
      "type": "event"
    },
    {
      "anonymous": false,
      "inputs": [
        {
          "indexed": true,
          "internalType": "address",
          "name": "previousOwner",
          "type": "address"
        },
        {
          "indexed": true,
          "internalType": "address",
          "name": "newOwner",
          "type": "address"
        }
      ],
      "name": "OwnershipTransferred",
      "type": "event"
    },
    {
      "anonymous": false,
      "inputs": [
        {
          "indexed": true,
          "internalType": "address",
          "name": "operator",
          "type": "address"
        },
        {
          "indexed": true,
          "internalType": "address",
          "name": "from",
          "type": "address"
        },
        {
          "indexed": true,
          "internalType": "address",
          "name": "to",
          "type": "address"
        },
        {
          "indexed": false,
          "internalType": "uint256[]",
          "name": "ids",
          "type": "uint256[]"
        },
        {
          "indexed": false,
          "internalType": "uint256[]",
          "name": "values",
          "type": "uint256[]"
        }
      ],
      "name": "TransferBatch",
      "type": "event"
    },
    {
      "anonymous": false,
      "inputs": [
        {
          "indexed": true,
          "internalType": "address",
          "name": "operator",
          "type": "address"
        },
        {
          "indexed": true,
          "internalType": "address",
          "name": "from",
          "type": "address"
        },
        {
          "indexed": true,
          "internalType": "address",
          "name": "to",
          "type": "address"
        },
        {
          "indexed": false,
          "internalType": "uint256",
          "name": "id",
          "type": "uint256"
        },
        {
          "indexed": false,
          "internalType": "uint256",
          "name": "value",
          "type": "uint256"
        }
      ],
      "name": "TransferSingle",
      "type": "event"
    },
    {
      "anonymous": false,
      "inputs": [
        {
          "indexed": false,
          "internalType": "string",
          "name": "value",
          "type": "string"
        },
        {
          "indexed": true,
          "internalType": "uint256",
          "name": "id",
          "type": "uint256"
        }
      ],
      "name": "URI",
      "type": "event"
    },
    {
      "inputs": [],
      "name": "FraktalAccount",
      "outputs": [
        {
          "internalType": "address",
          "name": "",
          "type": "address"
        }
      ],
      "stateMutability": "view",
      "type": "function"
    },
    {
      "inputs": [
        {
          "internalType": "address",
          "name": "account",
          "type": "address"
        },
        {
          "internalType": "uint256",
          "name": "id",
          "type": "uint256"
        }
      ],
      "name": "balanceOf",
      "outputs": [
        {
          "internalType": "uint256",
          "name": "",
          "type": "uint256"
        }
      ],
      "stateMutability": "view",
      "type": "function"
    },
    {
      "inputs": [
        {
          "internalType": "address[]",
          "name": "accounts",
          "type": "address[]"
        },
        {
          "internalType": "uint256[]",
          "name": "ids",
          "type": "uint256[]"
        }
      ],
      "name": "balanceOfBatch",
      "outputs": [
        {
          "internalType": "uint256[]",
          "name": "",
          "type": "uint256[]"
        }
      ],
      "stateMutability": "view",
      "type": "function"
    },
    {
      "inputs": [
        {
          "internalType": "address",
          "name": "account",
          "type": "address"
        },
        {
          "internalType": "uint256",
          "name": "id",
          "type": "uint256"
        },
        {
          "internalType": "uint256",
          "name": "value",
          "type": "uint256"
        }
      ],
      "name": "burn",
      "outputs": [],
      "stateMutability": "nonpayable",
      "type": "function"
    },
    {
      "inputs": [
        {
          "internalType": "address",
          "name": "account",
          "type": "address"
        },
        {
          "internalType": "uint256[]",
          "name": "ids",
          "type": "uint256[]"
        },
        {
          "internalType": "uint256[]",
          "name": "values",
          "type": "uint256[]"
        }
      ],
      "name": "burnBatch",
      "outputs": [],
      "stateMutability": "nonpayable",
      "type": "function"
    },
    {
      "inputs": [
        {
          "internalType": "uint256",
          "name": "id",
          "type": "uint256"
        }
      ],
      "name": "exists",
      "outputs": [
        {
          "internalType": "bool",
          "name": "",
          "type": "bool"
        }
      ],
      "stateMutability": "view",
      "type": "function"
    },
    {
      "inputs": [
        {
          "internalType": "address",
          "name": "account",
          "type": "address"
        },
        {
          "internalType": "address",
          "name": "operator",
          "type": "address"
        }
      ],
      "name": "isApprovedForAll",
      "outputs": [
        {
          "internalType": "bool",
          "name": "",
          "type": "bool"
        }
      ],
      "stateMutability": "view",
      "type": "function"
    },
    {
      "inputs": [
        {
          "internalType": "address",
          "name": "account",
          "type": "address"
        },
        {
          "internalType": "uint256",
          "name": "id",
          "type": "uint256"
        },
        {
          "internalType": "uint256",
          "name": "amount",
          "type": "uint256"
        },
        {
          "internalType": "bytes",
          "name": "data",
          "type": "bytes"
        }
      ],
      "name": "mint",
      "outputs": [],
      "stateMutability": "nonpayable",
      "type": "function"
    },
    {
      "inputs": [
        {
          "internalType": "address",
          "name": "to",
          "type": "address"
        },
        {
          "internalType": "uint256[]",
          "name": "ids",
          "type": "uint256[]"
        },
        {
          "internalType": "uint256[]",
          "name": "amounts",
          "type": "uint256[]"
        },
        {
          "internalType": "bytes",
          "name": "data",
          "type": "bytes"
        }
      ],
      "name": "mintBatch",
      "outputs": [],
      "stateMutability": "nonpayable",
      "type": "function"
    },
    {
      "inputs": [],
      "name": "owner",
      "outputs": [
        {
          "internalType": "address",
          "name": "",
          "type": "address"
        }
      ],
      "stateMutability": "view",
      "type": "function"
    },
    {
      "inputs": [],
      "name": "ownerOfContract",
      "outputs": [
        {
          "internalType": "address",
          "name": "",
          "type": "address"
        }
      ],
      "stateMutability": "view",
      "type": "function"
    },
    {
      "inputs": [],
      "name": "renounceOwnership",
      "outputs": [],
      "stateMutability": "nonpayable",
      "type": "function"
    },
    {
      "inputs": [
        {
          "internalType": "address",
          "name": "from",
          "type": "address"
        },
        {
          "internalType": "address",
          "name": "to",
          "type": "address"
        },
        {
          "internalType": "uint256[]",
          "name": "ids",
          "type": "uint256[]"
        },
        {
          "internalType": "uint256[]",
          "name": "values",
          "type": "uint256[]"
        },
        {
          "internalType": "bytes",
          "name": "data",
          "type": "bytes"
        }
      ],
      "name": "safeBatchTransferFrom",
      "outputs": [],
      "stateMutability": "nonpayable",
      "type": "function"
    },
    {
      "inputs": [
        {
          "internalType": "address",
          "name": "from",
          "type": "address"
        },
        {
          "internalType": "address",
          "name": "to",
          "type": "address"
        },
        {
          "internalType": "uint256",
          "name": "id",
          "type": "uint256"
        },
        {
          "internalType": "uint256",
          "name": "value",
          "type": "uint256"
        },
        {
          "internalType": "bytes",
          "name": "data",
          "type": "bytes"
        }
      ],
      "name": "safeTransferFrom",
      "outputs": [],
      "stateMutability": "nonpayable",
      "type": "function"
    },
    {
      "inputs": [
        {
          "internalType": "address",
          "name": "operator",
          "type": "address"
        },
        {
          "internalType": "bool",
          "name": "approved",
          "type": "bool"
        }
      ],
      "name": "setApprovalForAll",
      "outputs": [],
      "stateMutability": "nonpayable",
      "type": "function"
    },
    {
      "inputs": [
        {
          "internalType": "string",
          "name": "newuri",
          "type": "string"
        }
      ],
      "name": "setURI",
      "outputs": [],
      "stateMutability": "nonpayable",
      "type": "function"
    },
    {
      "inputs": [
        {
          "internalType": "bytes4",
          "name": "interfaceId",
          "type": "bytes4"
        }
      ],
      "name": "supportsInterface",
      "outputs": [
        {
          "internalType": "bool",
          "name": "",
          "type": "bool"
        }
      ],
      "stateMutability": "view",
      "type": "function"
    },
    {
      "inputs": [],
      "name": "totalSupply",
      "outputs": [
        {
          "internalType": "uint256",
          "name": "",
          "type": "uint256"
        }
      ],
      "stateMutability": "view",
      "type": "function"
    },
    {
      "inputs": [
        {
          "internalType": "uint256",
          "name": "id",
          "type": "uint256"
        }
      ],
      "name": "totalSupply",
      "outputs": [
        {
          "internalType": "uint256",
          "name": "",
          "type": "uint256"
        }
      ],
      "stateMutability": "view",
      "type": "function"
    },
    {
      "inputs": [
        {
          "internalType": "address",
          "name": "newOwner",
          "type": "address"
        }
      ],
      "name": "transferOwnership",
      "outputs": [],
      "stateMutability": "nonpayable",
      "type": "function"
    },
    {
      "inputs": [
        {
          "internalType": "uint256",
          "name": "",
          "type": "uint256"
        }
      ],
      "name": "uri",
      "outputs": [
        {
          "internalType": "string",
          "name": "",
          "type": "string"
        }
      ],
      "stateMutability": "view",
      "type": "function"
    }
  ],
  "bytecode": "0x6080604052736fdc66cf1c2d108e3eae95dfba6feffccf90f932600760006101000a81548173ffffffffffffffffffffffffffffffffffffffff021916908373ffffffffffffffffffffffffffffffffffffffff1602179055503480156200006657600080fd5b506040516200393d3803806200393d83398181016040528101906200008c9190620002c3565b8060405180602001604052806000815250620000ae816200017e60201b60201c565b50600073ffffffffffffffffffffffffffffffffffffffff168173ffffffffffffffffffffffffffffffffffffffff1603620001245760006040517f1e4fbdf70000000000000000000000000000000000000000000000000000000081526004016200011b919062000306565b60405180910390fd5b62000135816200019360201b60201c565b5033600660006101000a81548173ffffffffffffffffffffffffffffffffffffffff021916908373ffffffffffffffffffffffffffffffffffffffff1602179055505062000684565b80600290816200018f91906200059d565b5050565b6000600360009054906101000a900473ffffffffffffffffffffffffffffffffffffffff16905081600360006101000a81548173ffffffffffffffffffffffffffffffffffffffff021916908373ffffffffffffffffffffffffffffffffffffffff1602179055508173ffffffffffffffffffffffffffffffffffffffff168173ffffffffffffffffffffffffffffffffffffffff167f8be0079c531659141344cd1fd0a4f28419497f9722a3daafe3b4186f6b6457e060405160405180910390a35050565b600080fd5b600073ffffffffffffffffffffffffffffffffffffffff82169050919050565b60006200028b826200025e565b9050919050565b6200029d816200027e565b8114620002a957600080fd5b50565b600081519050620002bd8162000292565b92915050565b600060208284031215620002dc57620002db62000259565b5b6000620002ec84828501620002ac565b91505092915050565b62000300816200027e565b82525050565b60006020820190506200031d6000830184620002f5565b92915050565b600081519050919050565b7f4e487b7100000000000000000000000000000000000000000000000000000000600052604160045260246000fd5b7f4e487b7100000000000000000000000000000000000000000000000000000000600052602260045260246000fd5b60006002820490506001821680620003a557607f821691505b602082108103620003bb57620003ba6200035d565b5b50919050565b60008190508160005260206000209050919050565b60006020601f8301049050919050565b600082821b905092915050565b600060088302620004257fffffffffffffffffffffffffffffffffffffffffffffffffffffffffffffffff82620003e6565b620004318683620003e6565b95508019841693508086168417925050509392505050565b6000819050919050565b6000819050919050565b60006200047e62000478620004728462000449565b62000453565b62000449565b9050919050565b6000819050919050565b6200049a836200045d565b620004b2620004a98262000485565b848454620003f3565b825550505050565b600090565b620004c9620004ba565b620004d68184846200048f565b505050565b5b81811015620004fe57620004f2600082620004bf565b600181019050620004dc565b5050565b601f8211156200054d576200051781620003c1565b6200052284620003d6565b8101602085101562000532578190505b6200054a6200054185620003d6565b830182620004db565b50505b505050565b600082821c905092915050565b6000620005726000198460080262000552565b1980831691505092915050565b60006200058d83836200055f565b9150826002028217905092915050565b620005a88262000323565b67ffffffffffffffff811115620005c457620005c36200032e565b5b620005d082546200038c565b620005dd82828562000502565b600060209050601f83116001811462000615576000841562000600578287015190505b6200060c85826200057f565b8655506200067c565b601f1984166200062586620003c1565b60005b828110156200064f5784890151825560018201915060208501945060208101905062000628565b868310156200066f57848901516200066b601f8916826200055f565b8355505b6001600288020188555050505b505050505050565b6132a980620006946000396000f3fe608060405234801561001057600080fd5b50600436106101365760003560e01c80636b20c454116100b8578063bd85b0391161007c578063bd85b03914610337578063e985e9c514610367578063eb2741a314610397578063f242432a146103b5578063f2fde38b146103d1578063f5298aca146103ed57610136565b80636b20c454146102bb578063715018a6146102d7578063731133e9146102e15780638da5cb5b146102fd578063a22cb4651461031b57610136565b80631f7fdffa116100ff5780631f7fdffa146102055780632eb2c2d614610221578063468229ae1461023d5780634e1273f41461025b5780634f558e791461028b57610136565b8062fdd58e1461013b57806301ffc9a71461016b57806302fe53051461019b5780630e89341c146101b757806318160ddd146101e7575b600080fd5b6101556004803603810190610150919061209d565b610409565b60405161016291906120ec565b60405180910390f35b6101856004803603810190610180919061215f565b610463565b60405161019291906121a7565b60405180910390f35b6101b560048036038101906101b09190612308565b610545565b005b6101d160048036038101906101cc9190612351565b610639565b6040516101de91906123fd565b60405180910390f35b6101ef6106cd565b6040516101fc91906120ec565b60405180910390f35b61021f600480360381019061021a9190612588565b6106d7565b005b61023b60048036038101906102369190612643565b6107d1565b005b610245610879565b6040516102529190612721565b60405180910390f35b610275600480360381019061027091906127ff565b61089f565b6040516102829190612935565b60405180910390f35b6102a560048036038101906102a09190612351565b6109ae565b6040516102b291906121a7565b60405180910390f35b6102d560048036038101906102d09190612957565b6109c2565b005b6102df610a6e565b005b6102fb60048036038101906102f691906129e2565b610a82565b005b610305610b7c565b6040516103129190612721565b60405180910390f35b61033560048036038101906103309190612a91565b610ba6565b005b610351600480360381019061034c9190612351565b610bbc565b60405161035e91906120ec565b60405180910390f35b610381600480360381019061037c9190612ad1565b610bd9565b60405161038e91906121a7565b60405180910390f35b61039f610c6d565b6040516103ac9190612721565b60405180910390f35b6103cf60048036038101906103ca9190612b11565b610c93565b005b6103eb60048036038101906103e69190612ba8565b610d3b565b005b61040760048036038101906104029190612bd5565b610dc1565b005b600080600083815260200190815260200160002060008473ffffffffffffffffffffffffffffffffffffffff1673ffffffffffffffffffffffffffffffffffffffff16815260200190815260200160002054905092915050565b60007fd9b67a26000000000000000000000000000000000000000000000000000000007bffffffffffffffffffffffffffffffffffffffffffffffffffffffff1916827bffffffffffffffffffffffffffffffffffffffffffffffffffffffff1916148061052e57507f0e89341c000000000000000000000000000000000000000000000000000000007bffffffffffffffffffffffffffffffffffffffffffffffffffffffff1916827bffffffffffffffffffffffffffffffffffffffffffffffffffffffff1916145b8061053e575061053d82610e6d565b5b9050919050565b600660009054906101000a900473ffffffffffffffffffffffffffffffffffffffff1673ffffffffffffffffffffffffffffffffffffffff163373ffffffffffffffffffffffffffffffffffffffff1614806105ee5750600760009054906101000a900473ffffffffffffffffffffffffffffffffffffffff1673ffffffffffffffffffffffffffffffffffffffff163373ffffffffffffffffffffffffffffffffffffffff16145b61062d576040517f08c379a000000000000000000000000000000000000000000000000000000000815260040161062490612c74565b60405180910390fd5b61063681610ed7565b50565b60606002805461064890612cc3565b80601f016020809104026020016040519081016040528092919081815260200182805461067490612cc3565b80156106c15780601f10610696576101008083540402835291602001916106c1565b820191906000526020600020905b8154815290600101906020018083116106a457829003601f168201915b50505050509050919050565b6000600554905090565b600660009054906101000a900473ffffffffffffffffffffffffffffffffffffffff1673ffffffffffffffffffffffffffffffffffffffff163373ffffffffffffffffffffffffffffffffffffffff1614806107805750600760009054906101000a900473ffffffffffffffffffffffffffffffffffffffff1673ffffffffffffffffffffffffffffffffffffffff163373ffffffffffffffffffffffffffffffffffffffff16145b6107bf576040517f08c379a00000000000000000000000000000000000000000000000000000000081526004016107b690612c74565b60405180910390fd5b6107cb84848484610eea565b50505050565b60006107db610f70565b90508073ffffffffffffffffffffffffffffffffffffffff168673ffffffffffffffffffffffffffffffffffffffff1614158015610820575061081e8682610bd9565b155b156108645780866040517fe237d92200000000000000000000000000000000000000000000000000000000815260040161085b929190612cf4565b60405180910390fd5b6108718686868686610f78565b505050505050565b600660009054906101000a900473ffffffffffffffffffffffffffffffffffffffff1681565b606081518351146108eb57815183516040517f5b0599910000000000000000000000000000000000000000000000000000000081526004016108e2929190612d1d565b60405180910390fd5b6000835167ffffffffffffffff811115610908576109076121dd565b5b6040519080825280602002602001820160405280156109365781602001602082028036833780820191505090505b50905060005b84518110156109a35761097361095b828761107090919063ffffffff16565b61096e838761108490919063ffffffff16565b610409565b82828151811061098657610985612d46565b5b6020026020010181815250508061099c90612da4565b905061093c565b508091505092915050565b6000806109ba83610bbc565b119050919050565b6109ca610f70565b73ffffffffffffffffffffffffffffffffffffffff168373ffffffffffffffffffffffffffffffffffffffff1614158015610a135750610a1183610a0c610f70565b610bd9565b155b15610a5e57610a20610f70565b836040517fe237d922000000000000000000000000000000000000000000000000000000008152600401610a55929190612cf4565b60405180910390fd5b610a69838383611098565b505050565b610a7661112c565b610a8060006111b3565b565b600660009054906101000a900473ffffffffffffffffffffffffffffffffffffffff1673ffffffffffffffffffffffffffffffffffffffff163373ffffffffffffffffffffffffffffffffffffffff161480610b2b5750600760009054906101000a900473ffffffffffffffffffffffffffffffffffffffff1673ffffffffffffffffffffffffffffffffffffffff163373ffffffffffffffffffffffffffffffffffffffff16145b610b6a576040517f08c379a0000000000000000000000000000000000000000000000000000000008152600401610b6190612c74565b60405180910390fd5b610b7684848484611279565b50505050565b6000600360009054906101000a900473ffffffffffffffffffffffffffffffffffffffff16905090565b610bb8610bb1610f70565b8383611312565b5050565b600060046000838152602001908152602001600020549050919050565b6000600160008473ffffffffffffffffffffffffffffffffffffffff1673ffffffffffffffffffffffffffffffffffffffff16815260200190815260200160002060008373ffffffffffffffffffffffffffffffffffffffff1673ffffffffffffffffffffffffffffffffffffffff16815260200190815260200160002060009054906101000a900460ff16905092915050565b600760009054906101000a900473ffffffffffffffffffffffffffffffffffffffff1681565b6000610c9d610f70565b90508073ffffffffffffffffffffffffffffffffffffffff168673ffffffffffffffffffffffffffffffffffffffff1614158015610ce25750610ce08682610bd9565b155b15610d265780866040517fe237d922000000000000000000000000000000000000000000000000000000008152600401610d1d929190612cf4565b60405180910390fd5b610d338686868686611482565b505050505050565b610d4361112c565b600073ffffffffffffffffffffffffffffffffffffffff168173ffffffffffffffffffffffffffffffffffffffff1603610db55760006040517f1e4fbdf7000000000000000000000000000000000000000000000000000000008152600401610dac9190612721565b60405180910390fd5b610dbe816111b3565b50565b610dc9610f70565b73ffffffffffffffffffffffffffffffffffffffff168373ffffffffffffffffffffffffffffffffffffffff1614158015610e125750610e1083610e0b610f70565b610bd9565b155b15610e5d57610e1f610f70565b836040517fe237d922000000000000000000000000000000000000000000000000000000008152600401610e54929190612cf4565b60405180910390fd5b610e6883838361158d565b505050565b60007f01ffc9a7000000000000000000000000000000000000000000000000000000007bffffffffffffffffffffffffffffffffffffffffffffffffffffffff1916827bffffffffffffffffffffffffffffffffffffffffffffffffffffffff1916149050919050565b8060029081610ee69190612f98565b5050565b600073ffffffffffffffffffffffffffffffffffffffff168473ffffffffffffffffffffffffffffffffffffffff1603610f5c5760006040517f57f447ce000000000000000000000000000000000000000000000000000000008152600401610f539190612721565b60405180910390fd5b610f6a600085858585611634565b50505050565b600033905090565b600073ffffffffffffffffffffffffffffffffffffffff168473ffffffffffffffffffffffffffffffffffffffff1603610fea5760006040517f57f447ce000000000000000000000000000000000000000000000000000000008152600401610fe19190612721565b60405180910390fd5b600073ffffffffffffffffffffffffffffffffffffffff168573ffffffffffffffffffffffffffffffffffffffff160361105c5760006040517f01a835140000000000000000000000000000000000000000000000000000000081526004016110539190612721565b60405180910390fd5b6110698585858585611634565b5050505050565b600060208202602084010151905092915050565b600060208202602084010151905092915050565b600073ffffffffffffffffffffffffffffffffffffffff168373ffffffffffffffffffffffffffffffffffffffff160361110a5760006040517f01a835140000000000000000000000000000000000000000000000000000000081526004016111019190612721565b60405180910390fd5b611127836000848460405180602001604052806000815250611634565b505050565b611134610f70565b73ffffffffffffffffffffffffffffffffffffffff16611152610b7c565b73ffffffffffffffffffffffffffffffffffffffff16146111b157611175610f70565b6040517f118cdaa70000000000000000000000000000000000000000000000000000000081526004016111a89190612721565b60405180910390fd5b565b6000600360009054906101000a900473ffffffffffffffffffffffffffffffffffffffff16905081600360006101000a81548173ffffffffffffffffffffffffffffffffffffffff021916908373ffffffffffffffffffffffffffffffffffffffff1602179055508173ffffffffffffffffffffffffffffffffffffffff168173ffffffffffffffffffffffffffffffffffffffff167f8be0079c531659141344cd1fd0a4f28419497f9722a3daafe3b4186f6b6457e060405160405180910390a35050565b600073ffffffffffffffffffffffffffffffffffffffff168473ffffffffffffffffffffffffffffffffffffffff16036112eb5760006040517f57f447ce0000000000000000000000000000000000000000000000000000000081526004016112e29190612721565b60405180910390fd5b6000806112f885856116e6565b9150915061130a600087848487611634565b505050505050565b600073ffffffffffffffffffffffffffffffffffffffff168273ffffffffffffffffffffffffffffffffffffffff16036113845760006040517fced3e10000000000000000000000000000000000000000000000000000000000815260040161137b9190612721565b60405180910390fd5b80600160008573ffffffffffffffffffffffffffffffffffffffff1673ffffffffffffffffffffffffffffffffffffffff16815260200190815260200160002060008473ffffffffffffffffffffffffffffffffffffffff1673ffffffffffffffffffffffffffffffffffffffff16815260200190815260200160002060006101000a81548160ff0219169083151502179055508173ffffffffffffffffffffffffffffffffffffffff168373ffffffffffffffffffffffffffffffffffffffff167f17307eab39ab6107e8899845ad3d59bd9653f200f220920489ca2b5937696c318360405161147591906121a7565b60405180910390a3505050565b600073ffffffffffffffffffffffffffffffffffffffff168473ffffffffffffffffffffffffffffffffffffffff16036114f45760006040517f57f447ce0000000000000000000000000000000000000000000000000000000081526004016114eb9190612721565b60405180910390fd5b600073ffffffffffffffffffffffffffffffffffffffff168573ffffffffffffffffffffffffffffffffffffffff16036115665760006040517f01a8351400000000000000000000000000000000000000000000000000000000815260040161155d9190612721565b60405180910390fd5b60008061157385856116e6565b915091506115848787848487611634565b50505050505050565b600073ffffffffffffffffffffffffffffffffffffffff168373ffffffffffffffffffffffffffffffffffffffff16036115ff5760006040517f01a835140000000000000000000000000000000000000000000000000000000081526004016115f69190612721565b60405180910390fd5b60008061160c84846116e6565b9150915061162d856000848460405180602001604052806000815250611634565b5050505050565b61164085858585611716565b600073ffffffffffffffffffffffffffffffffffffffff168473ffffffffffffffffffffffffffffffffffffffff16146116df57600061167e610f70565b905060018451036116ce57600061169f60008661108490919063ffffffff16565b905060006116b760008661108490919063ffffffff16565b90506116c7838989858589611728565b50506116dd565b6116dc8187878787876118dc565b5b505b5050505050565b60608060405191506001825283602083015260408201905060018152826020820152604081016040529250929050565b61172284848484611a90565b50505050565b60008473ffffffffffffffffffffffffffffffffffffffff163b11156118d4578373ffffffffffffffffffffffffffffffffffffffff1663f23a6e6187878686866040518663ffffffff1660e01b81526004016117899594939291906130bf565b6020604051808303816000875af19250505080156117c557506040513d601f19601f820116820180604052508101906117c2919061312e565b60015b611849573d80600081146117f5576040519150601f19603f3d011682016040523d82523d6000602084013e6117fa565b606091505b50600081510361184157846040517f57f447ce0000000000000000000000000000000000000000000000000000000081526004016118389190612721565b60405180910390fd5b805181602001fd5b63f23a6e6160e01b7bffffffffffffffffffffffffffffffffffffffffffffffffffffffff1916817bffffffffffffffffffffffffffffffffffffffffffffffffffffffff1916146118d257846040517f57f447ce0000000000000000000000000000000000000000000000000000000081526004016118c99190612721565b60405180910390fd5b505b505050505050565b60008473ffffffffffffffffffffffffffffffffffffffff163b1115611a88578373ffffffffffffffffffffffffffffffffffffffff1663bc197c8187878686866040518663ffffffff1660e01b815260040161193d95949392919061315b565b6020604051808303816000875af192505050801561197957506040513d601f19601f82011682018060405250810190611976919061312e565b60015b6119fd573d80600081146119a9576040519150601f19603f3d011682016040523d82523d6000602084013e6119ae565b606091505b5060008151036119f557846040517f57f447ce0000000000000000000000000000000000000000000000000000000081526004016119ec9190612721565b60405180910390fd5b805181602001fd5b63bc197c8160e01b7bffffffffffffffffffffffffffffffffffffffffffffffffffffffff1916817bffffffffffffffffffffffffffffffffffffffffffffffffffffffff191614611a8657846040517f57f447ce000000000000000000000000000000000000000000000000000000008152600401611a7d9190612721565b60405180910390fd5b505b505050505050565b611a9c84848484611c47565b600073ffffffffffffffffffffffffffffffffffffffff168473ffffffffffffffffffffffffffffffffffffffff1603611b7c576000805b8351811015611b60576000838281518110611af257611af1612d46565b5b602002602001015190508060046000878581518110611b1457611b13612d46565b5b602002602001015181526020019081526020016000206000828254611b3991906131c3565b925050819055508083611b4c91906131c3565b92505080611b5990612da4565b9050611ad4565b508060056000828254611b7391906131c3565b92505081905550505b600073ffffffffffffffffffffffffffffffffffffffff168373ffffffffffffffffffffffffffffffffffffffff1603611c41576000805b8351811015611c2e576000838281518110611bd257611bd1612d46565b5b602002602001015190508060046000878581518110611bf457611bf3612d46565b5b602002602001015181526020019081526020016000206000828254039250508190555080830192505080611c2790612da4565b9050611bb4565b5080600560008282540392505081905550505b50505050565b8051825114611c9157815181516040517f5b059991000000000000000000000000000000000000000000000000000000008152600401611c88929190612d1d565b60405180910390fd5b6000611c9b610f70565b905060005b8351811015611eb0576000611cbe828661108490919063ffffffff16565b90506000611cd5838661108490919063ffffffff16565b9050600073ffffffffffffffffffffffffffffffffffffffff168873ffffffffffffffffffffffffffffffffffffffff1614611e0257600080600084815260200190815260200160002060008a73ffffffffffffffffffffffffffffffffffffffff1673ffffffffffffffffffffffffffffffffffffffff16815260200190815260200160002054905081811015611daa57888183856040517f03dee4c5000000000000000000000000000000000000000000000000000000008152600401611da194939291906131f7565b60405180910390fd5b81810360008085815260200190815260200160002060008b73ffffffffffffffffffffffffffffffffffffffff1673ffffffffffffffffffffffffffffffffffffffff16815260200190815260200160002081905550505b600073ffffffffffffffffffffffffffffffffffffffff168773ffffffffffffffffffffffffffffffffffffffff1614611e9d578060008084815260200190815260200160002060008973ffffffffffffffffffffffffffffffffffffffff1673ffffffffffffffffffffffffffffffffffffffff1681526020019081526020016000206000828254611e9591906131c3565b925050819055505b505080611ea990612da4565b9050611ca0565b506001835103611f6f576000611ed060008561108490919063ffffffff16565b90506000611ee860008561108490919063ffffffff16565b90508573ffffffffffffffffffffffffffffffffffffffff168773ffffffffffffffffffffffffffffffffffffffff168473ffffffffffffffffffffffffffffffffffffffff167fc3d58168c5ae7397731d063d5bbf3d657854427343f4c083240f7aacaa2d0f628585604051611f60929190612d1d565b60405180910390a45050611fee565b8373ffffffffffffffffffffffffffffffffffffffff168573ffffffffffffffffffffffffffffffffffffffff168273ffffffffffffffffffffffffffffffffffffffff167f4a39dc06d4c0dbc64b70af90fd698a233a518aa5d07e595d983b8c0526c8f7fb8686604051611fe592919061323c565b60405180910390a45b5050505050565b6000604051905090565b600080fd5b600080fd5b600073ffffffffffffffffffffffffffffffffffffffff82169050919050565b600061203482612009565b9050919050565b61204481612029565b811461204f57600080fd5b50565b6000813590506120618161203b565b92915050565b6000819050919050565b61207a81612067565b811461208557600080fd5b50565b60008135905061209781612071565b92915050565b600080604083850312156120b4576120b3611fff565b5b60006120c285828601612052565b92505060206120d385828601612088565b9150509250929050565b6120e681612067565b82525050565b600060208201905061210160008301846120dd565b92915050565b60007fffffffff0000000000000000000000000000000000000000000000000000000082169050919050565b61213c81612107565b811461214757600080fd5b50565b60008135905061215981612133565b92915050565b60006020828403121561217557612174611fff565b5b60006121838482850161214a565b91505092915050565b60008115159050919050565b6121a18161218c565b82525050565b60006020820190506121bc6000830184612198565b92915050565b600080fd5b600080fd5b6000601f19601f8301169050919050565b7f4e487b7100000000000000000000000000000000000000000000000000000000600052604160045260246000fd5b612215826121cc565b810181811067ffffffffffffffff82111715612234576122336121dd565b5b80604052505050565b6000612247611ff5565b9050612253828261220c565b919050565b600067ffffffffffffffff821115612273576122726121dd565b5b61227c826121cc565b9050602081019050919050565b82818337600083830152505050565b60006122ab6122a684612258565b61223d565b9050828152602081018484840111156122c7576122c66121c7565b5b6122d2848285612289565b509392505050565b600082601f8301126122ef576122ee6121c2565b5b81356122ff848260208601612298565b91505092915050565b60006020828403121561231e5761231d611fff565b5b600082013567ffffffffffffffff81111561233c5761233b612004565b5b612348848285016122da565b91505092915050565b60006020828403121561236757612366611fff565b5b600061237584828501612088565b91505092915050565b600081519050919050565b600082825260208201905092915050565b60005b838110156123b857808201518184015260208101905061239d565b60008484015250505050565b60006123cf8261237e565b6123d98185612389565b93506123e981856020860161239a565b6123f2816121cc565b840191505092915050565b6000602082019050818103600083015261241781846123c4565b905092915050565b600067ffffffffffffffff82111561243a576124396121dd565b5b602082029050602081019050919050565b600080fd5b600061246361245e8461241f565b61223d565b905080838252602082019050602084028301858111156124865761248561244b565b5b835b818110156124af578061249b8882612088565b845260208401935050602081019050612488565b5050509392505050565b600082601f8301126124ce576124cd6121c2565b5b81356124de848260208601612450565b91505092915050565b600067ffffffffffffffff821115612502576125016121dd565b5b61250b826121cc565b9050602081019050919050565b600061252b612526846124e7565b61223d565b905082815260208101848484011115612547576125466121c7565b5b612552848285612289565b509392505050565b600082601f83011261256f5761256e6121c2565b5b813561257f848260208601612518565b91505092915050565b600080600080608085870312156125a2576125a1611fff565b5b60006125b087828801612052565b945050602085013567ffffffffffffffff8111156125d1576125d0612004565b5b6125dd878288016124b9565b935050604085013567ffffffffffffffff8111156125fe576125fd612004565b5b61260a878288016124b9565b925050606085013567ffffffffffffffff81111561262b5761262a612004565b5b6126378782880161255a565b91505092959194509250565b600080600080600060a0868803121561265f5761265e611fff565b5b600061266d88828901612052565b955050602061267e88828901612052565b945050604086013567ffffffffffffffff81111561269f5761269e612004565b5b6126ab888289016124b9565b935050606086013567ffffffffffffffff8111156126cc576126cb612004565b5b6126d8888289016124b9565b925050608086013567ffffffffffffffff8111156126f9576126f8612004565b5b6127058882890161255a565b9150509295509295909350565b61271b81612029565b82525050565b60006020820190506127366000830184612712565b92915050565b600067ffffffffffffffff821115612757576127566121dd565b5b602082029050602081019050919050565b600061277b6127768461273c565b61223d565b9050808382526020820190506020840283018581111561279e5761279d61244b565b5b835b818110156127c757806127b38882612052565b8452602084019350506020810190506127a0565b5050509392505050565b600082601f8301126127e6576127e56121c2565b5b81356127f6848260208601612768565b91505092915050565b6000806040838503121561281657612815611fff565b5b600083013567ffffffffffffffff81111561283457612833612004565b5b612840858286016127d1565b925050602083013567ffffffffffffffff81111561286157612860612004565b5b61286d858286016124b9565b9150509250929050565b600081519050919050565b600082825260208201905092915050565b6000819050602082019050919050565b6128ac81612067565b82525050565b60006128be83836128a3565b60208301905092915050565b6000602082019050919050565b60006128e282612877565b6128ec8185612882565b93506128f783612893565b8060005b8381101561292857815161290f88826128b2565b975061291a836128ca565b9250506001810190506128fb565b5085935050505092915050565b6000602082019050818103600083015261294f81846128d7565b905092915050565b6000806000606084860312156129705761296f611fff565b5b600061297e86828701612052565b935050602084013567ffffffffffffffff81111561299f5761299e612004565b5b6129ab868287016124b9565b925050604084013567ffffffffffffffff8111156129cc576129cb612004565b5b6129d8868287016124b9565b9150509250925092565b600080600080608085870312156129fc576129fb611fff565b5b6000612a0a87828801612052565b9450506020612a1b87828801612088565b9350506040612a2c87828801612088565b925050606085013567ffffffffffffffff811115612a4d57612a4c612004565b5b612a598782880161255a565b91505092959194509250565b612a6e8161218c565b8114612a7957600080fd5b50565b600081359050612a8b81612a65565b92915050565b60008060408385031215612aa857612aa7611fff565b5b6000612ab685828601612052565b9250506020612ac785828601612a7c565b9150509250929050565b60008060408385031215612ae857612ae7611fff565b5b6000612af685828601612052565b9250506020612b0785828601612052565b9150509250929050565b600080600080600060a08688031215612b2d57612b2c611fff565b5b6000612b3b88828901612052565b9550506020612b4c88828901612052565b9450506040612b5d88828901612088565b9350506060612b6e88828901612088565b925050608086013567ffffffffffffffff811115612b8f57612b8e612004565b5b612b9b8882890161255a565b9150509295509295909350565b600060208284031215612bbe57612bbd611fff565b5b6000612bcc84828501612052565b91505092915050565b600080600060608486031215612bee57612bed611fff565b5b6000612bfc86828701612052565b9350506020612c0d86828701612088565b9250506040612c1e86828701612088565b9150509250925092565b7f4e6f74204f776e65720000000000000000000000000000000000000000000000600082015250565b6000612c5e600983612389565b9150612c6982612c28565b602082019050919050565b60006020820190508181036000830152612c8d81612c51565b9050919050565b7f4e487b7100000000000000000000000000000000000000000000000000000000600052602260045260246000fd5b60006002820490506001821680612cdb57607f821691505b602082108103612cee57612ced612c94565b5b50919050565b6000604082019050612d096000830185612712565b612d166020830184612712565b9392505050565b6000604082019050612d3260008301856120dd565b612d3f60208301846120dd565b9392505050565b7f4e487b7100000000000000000000000000000000000000000000000000000000600052603260045260246000fd5b7f4e487b7100000000000000000000000000000000000000000000000000000000600052601160045260246000fd5b6000612daf82612067565b91507fffffffffffffffffffffffffffffffffffffffffffffffffffffffffffffffff8203612de157612de0612d75565b5b600182019050919050565b60008190508160005260206000209050919050565b60006020601f8301049050919050565b600082821b905092915050565b600060088302612e4e7fffffffffffffffffffffffffffffffffffffffffffffffffffffffffffffffff82612e11565b612e588683612e11565b95508019841693508086168417925050509392505050565b6000819050919050565b6000612e95612e90612e8b84612067565b612e70565b612067565b9050919050565b6000819050919050565b612eaf83612e7a565b612ec3612ebb82612e9c565b848454612e1e565b825550505050565b600090565b612ed8612ecb565b612ee3818484612ea6565b505050565b5b81811015612f0757612efc600082612ed0565b600181019050612ee9565b5050565b601f821115612f4c57612f1d81612dec565b612f2684612e01565b81016020851015612f35578190505b612f49612f4185612e01565b830182612ee8565b50505b505050565b600082821c905092915050565b6000612f6f60001984600802612f51565b1980831691505092915050565b6000612f888383612f5e565b9150826002028217905092915050565b612fa18261237e565b67ffffffffffffffff811115612fba57612fb96121dd565b5b612fc48254612cc3565b612fcf828285612f0b565b600060209050601f8311600181146130025760008415612ff0578287015190505b612ffa8582612f7c565b865550613062565b601f19841661301086612dec565b60005b8281101561303857848901518255600182019150602085019450602081019050613013565b868310156130555784890151613051601f891682612f5e565b8355505b6001600288020188555050505b505050505050565b600081519050919050565b600082825260208201905092915050565b60006130918261306a565b61309b8185613075565b93506130ab81856020860161239a565b6130b4816121cc565b840191505092915050565b600060a0820190506130d46000830188612712565b6130e16020830187612712565b6130ee60408301866120dd565b6130fb60608301856120dd565b818103608083015261310d8184613086565b90509695505050505050565b60008151905061312881612133565b92915050565b60006020828403121561314457613143611fff565b5b600061315284828501613119565b91505092915050565b600060a0820190506131706000830188612712565b61317d6020830187612712565b818103604083015261318f81866128d7565b905081810360608301526131a381856128d7565b905081810360808301526131b78184613086565b90509695505050505050565b60006131ce82612067565b91506131d983612067565b92508282019050808211156131f1576131f0612d75565b5b92915050565b600060808201905061320c6000830187612712565b61321960208301866120dd565b61322660408301856120dd565b61323360608301846120dd565b95945050505050565b6000604082019050818103600083015261325681856128d7565b9050818103602083015261326a81846128d7565b9050939250505056fea26469706673582212203694d49e7e10a6afe0286cf943ba261120c467f69299a6e02d928fcc588ee0d064736f6c63430008140033",
  "linkReferences": {},
  "deployedLinkReferences": {}
}