{
  "_format": "hh-sol-artifact-1",
  "contractName": "MyToken",
  "sourceName": "contracts/Token.sol",
  "abi": [
    {
      "inputs": [
        {
          "internalType": "address",
          "name": "initialOwner",
          "type": "address"
        }
      ],
      "stateMutability": "nonpayable",
      "type": "constructor"
    },
    {
      "inputs": [
        {
          "internalType": "address",
          "name": "sender",
          "type": "address"
        },
        {
          "internalType": "uint256",
          "name": "balance",
          "type": "uint256"
        },
        {
          "internalType": "uint256",
          "name": "needed",
          "type": "uint256"
        },
        {
          "internalType": "uint256",
          "name": "tokenId",
          "type": "uint256"
        }
      ],
      "name": "ERC1155InsufficientBalance",
      "type": "error"
    },
    {
      "inputs": [
        {
          "internalType": "address",
          "name": "approver",
          "type": "address"
        }
      ],
      "name": "ERC1155InvalidApprover",
      "type": "error"
    },
    {
      "inputs": [
        {
          "internalType": "uint256",
          "name": "idsLength",
          "type": "uint256"
        },
        {
          "internalType": "uint256",
          "name": "valuesLength",
          "type": "uint256"
        }
      ],
      "name": "ERC1155InvalidArrayLength",
      "type": "error"
    },
    {
      "inputs": [
        {
          "internalType": "address",
          "name": "operator",
          "type": "address"
        }
      ],
      "name": "ERC1155InvalidOperator",
      "type": "error"
    },
    {
      "inputs": [
        {
          "internalType": "address",
          "name": "receiver",
          "type": "address"
        }
      ],
      "name": "ERC1155InvalidReceiver",
      "type": "error"
    },
    {
      "inputs": [
        {
          "internalType": "address",
          "name": "sender",
          "type": "address"
        }
      ],
      "name": "ERC1155InvalidSender",
      "type": "error"
    },
    {
      "inputs": [
        {
          "internalType": "address",
          "name": "operator",
          "type": "address"
        },
        {
          "internalType": "address",
          "name": "owner",
          "type": "address"
        }
      ],
      "name": "ERC1155MissingApprovalForAll",
      "type": "error"
    },
    {
      "inputs": [
        {
          "internalType": "address",
          "name": "owner",
          "type": "address"
        }
      ],
      "name": "OwnableInvalidOwner",
      "type": "error"
    },
    {
      "inputs": [
        {
          "internalType": "address",
          "name": "account",
          "type": "address"
        }
      ],
      "name": "OwnableUnauthorizedAccount",
      "type": "error"
    },
    {
      "anonymous": false,
      "inputs": [
        {
          "indexed": true,
          "internalType": "address",
          "name": "account",
          "type": "address"
        },
        {
          "indexed": true,
          "internalType": "address",
          "name": "operator",
          "type": "address"
        },
        {
          "indexed": false,
          "internalType": "bool",
          "name": "approved",
          "type": "bool"
        }
      ],
      "name": "ApprovalForAll",
      "type": "event"
    },
    {
      "anonymous": false,
      "inputs": [
        {
          "indexed": true,
          "internalType": "address",
          "name": "previousOwner",
          "type": "address"
        },
        {
          "indexed": true,
          "internalType": "address",
          "name": "newOwner",
          "type": "address"
        }
      ],
      "name": "OwnershipTransferred",
      "type": "event"
    },
    {
      "anonymous": false,
      "inputs": [
        {
          "indexed": true,
          "internalType": "address",
          "name": "operator",
          "type": "address"
        },
        {
          "indexed": true,
          "internalType": "address",
          "name": "from",
          "type": "address"
        },
        {
          "indexed": true,
          "internalType": "address",
          "name": "to",
          "type": "address"
        },
        {
          "indexed": false,
          "internalType": "uint256[]",
          "name": "ids",
          "type": "uint256[]"
        },
        {
          "indexed": false,
          "internalType": "uint256[]",
          "name": "values",
          "type": "uint256[]"
        }
      ],
      "name": "TransferBatch",
      "type": "event"
    },
    {
      "anonymous": false,
      "inputs": [
        {
          "indexed": true,
          "internalType": "address",
          "name": "operator",
          "type": "address"
        },
        {
          "indexed": true,
          "internalType": "address",
          "name": "from",
          "type": "address"
        },
        {
          "indexed": true,
          "internalType": "address",
          "name": "to",
          "type": "address"
        },
        {
          "indexed": false,
          "internalType": "uint256",
          "name": "id",
          "type": "uint256"
        },
        {
          "indexed": false,
          "internalType": "uint256",
          "name": "value",
          "type": "uint256"
        }
      ],
      "name": "TransferSingle",
      "type": "event"
    },
    {
      "anonymous": false,
      "inputs": [
        {
          "indexed": false,
          "internalType": "string",
          "name": "value",
          "type": "string"
        },
        {
          "indexed": true,
          "internalType": "uint256",
          "name": "id",
          "type": "uint256"
        }
      ],
      "name": "URI",
      "type": "event"
    },
    {
      "inputs": [
        {
          "internalType": "address",
          "name": "account",
          "type": "address"
        },
        {
          "internalType": "uint256",
          "name": "id",
          "type": "uint256"
        }
      ],
      "name": "balanceOf",
      "outputs": [
        {
          "internalType": "uint256",
          "name": "",
          "type": "uint256"
        }
      ],
      "stateMutability": "view",
      "type": "function"
    },
    {
      "inputs": [
        {
          "internalType": "address[]",
          "name": "accounts",
          "type": "address[]"
        },
        {
          "internalType": "uint256[]",
          "name": "ids",
          "type": "uint256[]"
        }
      ],
      "name": "balanceOfBatch",
      "outputs": [
        {
          "internalType": "uint256[]",
          "name": "",
          "type": "uint256[]"
        }
      ],
      "stateMutability": "view",
      "type": "function"
    },
    {
      "inputs": [
        {
          "internalType": "address",
          "name": "account",
          "type": "address"
        },
        {
          "internalType": "uint256",
          "name": "id",
          "type": "uint256"
        },
        {
          "internalType": "uint256",
          "name": "value",
          "type": "uint256"
        }
      ],
      "name": "burn",
      "outputs": [],
      "stateMutability": "nonpayable",
      "type": "function"
    },
    {
      "inputs": [
        {
          "internalType": "address",
          "name": "account",
          "type": "address"
        },
        {
          "internalType": "uint256[]",
          "name": "ids",
          "type": "uint256[]"
        },
        {
          "internalType": "uint256[]",
          "name": "values",
          "type": "uint256[]"
        }
      ],
      "name": "burnBatch",
      "outputs": [],
      "stateMutability": "nonpayable",
      "type": "function"
    },
    {
      "inputs": [
        {
          "internalType": "uint256",
          "name": "id",
          "type": "uint256"
        }
      ],
      "name": "exists",
      "outputs": [
        {
          "internalType": "bool",
          "name": "",
          "type": "bool"
        }
      ],
      "stateMutability": "view",
      "type": "function"
    },
    {
      "inputs": [
        {
          "internalType": "address",
          "name": "account",
          "type": "address"
        },
        {
          "internalType": "address",
          "name": "operator",
          "type": "address"
        }
      ],
      "name": "isApprovedForAll",
      "outputs": [
        {
          "internalType": "bool",
          "name": "",
          "type": "bool"
        }
      ],
      "stateMutability": "view",
      "type": "function"
    },
    {
      "inputs": [
        {
          "internalType": "address",
          "name": "account",
          "type": "address"
        },
        {
          "internalType": "uint256",
          "name": "id",
          "type": "uint256"
        },
        {
          "internalType": "uint256",
          "name": "amount",
          "type": "uint256"
        },
        {
          "internalType": "bytes",
          "name": "data",
          "type": "bytes"
        }
      ],
      "name": "mint",
      "outputs": [],
      "stateMutability": "nonpayable",
      "type": "function"
    },
    {
      "inputs": [
        {
          "internalType": "address",
          "name": "to",
          "type": "address"
        },
        {
          "internalType": "uint256[]",
          "name": "ids",
          "type": "uint256[]"
        },
        {
          "internalType": "uint256[]",
          "name": "amounts",
          "type": "uint256[]"
        },
        {
          "internalType": "bytes",
          "name": "data",
          "type": "bytes"
        }
      ],
      "name": "mintBatch",
      "outputs": [],
      "stateMutability": "nonpayable",
      "type": "function"
    },
    {
      "inputs": [],
      "name": "owner",
      "outputs": [
        {
          "internalType": "address",
          "name": "",
          "type": "address"
        }
      ],
      "stateMutability": "view",
      "type": "function"
    },
    {
      "inputs": [],
      "name": "renounceOwnership",
      "outputs": [],
      "stateMutability": "nonpayable",
      "type": "function"
    },
    {
      "inputs": [
        {
          "internalType": "address",
          "name": "from",
          "type": "address"
        },
        {
          "internalType": "address",
          "name": "to",
          "type": "address"
        },
        {
          "internalType": "uint256[]",
          "name": "ids",
          "type": "uint256[]"
        },
        {
          "internalType": "uint256[]",
          "name": "values",
          "type": "uint256[]"
        },
        {
          "internalType": "bytes",
          "name": "data",
          "type": "bytes"
        }
      ],
      "name": "safeBatchTransferFrom",
      "outputs": [],
      "stateMutability": "nonpayable",
      "type": "function"
    },
    {
      "inputs": [
        {
          "internalType": "address",
          "name": "from",
          "type": "address"
        },
        {
          "internalType": "address",
          "name": "to",
          "type": "address"
        },
        {
          "internalType": "uint256",
          "name": "id",
          "type": "uint256"
        },
        {
          "internalType": "uint256",
          "name": "value",
          "type": "uint256"
        },
        {
          "internalType": "bytes",
          "name": "data",
          "type": "bytes"
        }
      ],
      "name": "safeTransferFrom",
      "outputs": [],
      "stateMutability": "nonpayable",
      "type": "function"
    },
    {
      "inputs": [
        {
          "internalType": "address",
          "name": "operator",
          "type": "address"
        },
        {
          "internalType": "bool",
          "name": "approved",
          "type": "bool"
        }
      ],
      "name": "setApprovalForAll",
      "outputs": [],
      "stateMutability": "nonpayable",
      "type": "function"
    },
    {
      "inputs": [
        {
          "internalType": "string",
          "name": "newuri",
          "type": "string"
        }
      ],
      "name": "setURI",
      "outputs": [],
      "stateMutability": "nonpayable",
      "type": "function"
    },
    {
      "inputs": [
        {
          "internalType": "bytes4",
          "name": "interfaceId",
          "type": "bytes4"
        }
      ],
      "name": "supportsInterface",
      "outputs": [
        {
          "internalType": "bool",
          "name": "",
          "type": "bool"
        }
      ],
      "stateMutability": "view",
      "type": "function"
    },
    {
      "inputs": [],
      "name": "totalSupply",
      "outputs": [
        {
          "internalType": "uint256",
          "name": "",
          "type": "uint256"
        }
      ],
      "stateMutability": "view",
      "type": "function"
    },
    {
      "inputs": [
        {
          "internalType": "uint256",
          "name": "id",
          "type": "uint256"
        }
      ],
      "name": "totalSupply",
      "outputs": [
        {
          "internalType": "uint256",
          "name": "",
          "type": "uint256"
        }
      ],
      "stateMutability": "view",
      "type": "function"
    },
    {
      "inputs": [
        {
          "internalType": "address",
          "name": "newOwner",
          "type": "address"
        }
      ],
      "name": "transferOwnership",
      "outputs": [],
      "stateMutability": "nonpayable",
      "type": "function"
    },
    {
      "inputs": [
        {
          "internalType": "uint256",
          "name": "",
          "type": "uint256"
        }
      ],
      "name": "uri",
      "outputs": [
        {
          "internalType": "string",
          "name": "",
          "type": "string"
        }
      ],
      "stateMutability": "view",
      "type": "function"
    }
  ],
  "bytecode": "0x60806040523480156200001157600080fd5b50604051620034fd380380620034fd83398181016040528101906200003791906200022d565b80604051806020016040528060008152506200005981620000e860201b60201c565b50600073ffffffffffffffffffffffffffffffffffffffff168173ffffffffffffffffffffffffffffffffffffffff1603620000cf5760006040517f1e4fbdf7000000000000000000000000000000000000000000000000000000008152600401620000c6919062000270565b60405180910390fd5b620000e081620000fd60201b60201c565b5050620005ee565b8060029081620000f9919062000507565b5050565b6000600360009054906101000a900473ffffffffffffffffffffffffffffffffffffffff16905081600360006101000a81548173ffffffffffffffffffffffffffffffffffffffff021916908373ffffffffffffffffffffffffffffffffffffffff1602179055508173ffffffffffffffffffffffffffffffffffffffff168173ffffffffffffffffffffffffffffffffffffffff167f8be0079c531659141344cd1fd0a4f28419497f9722a3daafe3b4186f6b6457e060405160405180910390a35050565b600080fd5b600073ffffffffffffffffffffffffffffffffffffffff82169050919050565b6000620001f582620001c8565b9050919050565b6200020781620001e8565b81146200021357600080fd5b50565b6000815190506200022781620001fc565b92915050565b600060208284031215620002465762000245620001c3565b5b6000620002568482850162000216565b91505092915050565b6200026a81620001e8565b82525050565b60006020820190506200028760008301846200025f565b92915050565b600081519050919050565b7f4e487b7100000000000000000000000000000000000000000000000000000000600052604160045260246000fd5b7f4e487b7100000000000000000000000000000000000000000000000000000000600052602260045260246000fd5b600060028204905060018216806200030f57607f821691505b602082108103620003255762000324620002c7565b5b50919050565b60008190508160005260206000209050919050565b60006020601f8301049050919050565b600082821b905092915050565b6000600883026200038f7fffffffffffffffffffffffffffffffffffffffffffffffffffffffffffffffff8262000350565b6200039b868362000350565b95508019841693508086168417925050509392505050565b6000819050919050565b6000819050919050565b6000620003e8620003e2620003dc84620003b3565b620003bd565b620003b3565b9050919050565b6000819050919050565b6200040483620003c7565b6200041c6200041382620003ef565b8484546200035d565b825550505050565b600090565b6200043362000424565b62000440818484620003f9565b505050565b5b8181101562000468576200045c60008262000429565b60018101905062000446565b5050565b601f821115620004b75762000481816200032b565b6200048c8462000340565b810160208510156200049c578190505b620004b4620004ab8562000340565b83018262000445565b50505b505050565b600082821c905092915050565b6000620004dc60001984600802620004bc565b1980831691505092915050565b6000620004f78383620004c9565b9150826002028217905092915050565b62000512826200028d565b67ffffffffffffffff8111156200052e576200052d62000298565b5b6200053a8254620002f6565b620005478282856200046c565b600060209050601f8311600181146200057f57600084156200056a578287015190505b620005768582620004e9565b865550620005e6565b601f1984166200058f866200032b565b60005b82811015620005b95784890151825560018201915060208501945060208101905062000592565b86831015620005d95784890151620005d5601f891682620004c9565b8355505b6001600288020188555050505b505050505050565b612eff80620005fe6000396000f3fe608060405234801561001057600080fd5b50600436106101205760003560e01c80636b20c454116100ad578063bd85b03911610071578063bd85b03914610303578063e985e9c514610333578063f242432a14610363578063f2fde38b1461037f578063f5298aca1461039b57610120565b80636b20c45414610287578063715018a6146102a3578063731133e9146102ad5780638da5cb5b146102c9578063a22cb465146102e757610120565b806318160ddd116100f457806318160ddd146101d15780631f7fdffa146101ef5780632eb2c2d61461020b5780634e1273f4146102275780634f558e791461025757610120565b8062fdd58e1461012557806301ffc9a71461015557806302fe5305146101855780630e89341c146101a1575b600080fd5b61013f600480360381019061013a9190611d5f565b6103b7565b60405161014c9190611dae565b60405180910390f35b61016f600480360381019061016a9190611e21565b610411565b60405161017c9190611e69565b60405180910390f35b61019f600480360381019061019a9190611fca565b6104f3565b005b6101bb60048036038101906101b69190612013565b610507565b6040516101c891906120bf565b60405180910390f35b6101d961059b565b6040516101e69190611dae565b60405180910390f35b6102096004803603810190610204919061224a565b6105a5565b005b61022560048036038101906102209190612305565b6105bf565b005b610241600480360381019061023c9190612497565b610667565b60405161024e91906125cd565b60405180910390f35b610271600480360381019061026c9190612013565b610776565b60405161027e9190611e69565b60405180910390f35b6102a1600480360381019061029c91906125ef565b61078a565b005b6102ab610836565b005b6102c760048036038101906102c2919061267a565b61084a565b005b6102d1610864565b6040516102de919061270c565b60405180910390f35b61030160048036038101906102fc9190612753565b61088e565b005b61031d60048036038101906103189190612013565b6108a4565b60405161032a9190611dae565b60405180910390f35b61034d60048036038101906103489190612793565b6108c1565b60405161035a9190611e69565b60405180910390f35b61037d600480360381019061037891906127d3565b610955565b005b6103996004803603810190610394919061286a565b6109fd565b005b6103b560048036038101906103b09190612897565b610a83565b005b600080600083815260200190815260200160002060008473ffffffffffffffffffffffffffffffffffffffff1673ffffffffffffffffffffffffffffffffffffffff16815260200190815260200160002054905092915050565b60007fd9b67a26000000000000000000000000000000000000000000000000000000007bffffffffffffffffffffffffffffffffffffffffffffffffffffffff1916827bffffffffffffffffffffffffffffffffffffffffffffffffffffffff191614806104dc57507f0e89341c000000000000000000000000000000000000000000000000000000007bffffffffffffffffffffffffffffffffffffffffffffffffffffffff1916827bffffffffffffffffffffffffffffffffffffffffffffffffffffffff1916145b806104ec57506104eb82610b2f565b5b9050919050565b6104fb610b99565b61050481610c20565b50565b60606002805461051690612919565b80601f016020809104026020016040519081016040528092919081815260200182805461054290612919565b801561058f5780601f106105645761010080835404028352916020019161058f565b820191906000526020600020905b81548152906001019060200180831161057257829003601f168201915b50505050509050919050565b6000600554905090565b6105ad610b99565b6105b984848484610c33565b50505050565b60006105c9610cb9565b90508073ffffffffffffffffffffffffffffffffffffffff168673ffffffffffffffffffffffffffffffffffffffff161415801561060e575061060c86826108c1565b155b156106525780866040517fe237d92200000000000000000000000000000000000000000000000000000000815260040161064992919061294a565b60405180910390fd5b61065f8686868686610cc1565b505050505050565b606081518351146106b357815183516040517f5b0599910000000000000000000000000000000000000000000000000000000081526004016106aa929190612973565b60405180910390fd5b6000835167ffffffffffffffff8111156106d0576106cf611e9f565b5b6040519080825280602002602001820160405280156106fe5781602001602082028036833780820191505090505b50905060005b845181101561076b5761073b6107238287610db990919063ffffffff16565b6107368387610dcd90919063ffffffff16565b6103b7565b82828151811061074e5761074d61299c565b5b60200260200101818152505080610764906129fa565b9050610704565b508091505092915050565b600080610782836108a4565b119050919050565b610792610cb9565b73ffffffffffffffffffffffffffffffffffffffff168373ffffffffffffffffffffffffffffffffffffffff16141580156107db57506107d9836107d4610cb9565b6108c1565b155b15610826576107e8610cb9565b836040517fe237d92200000000000000000000000000000000000000000000000000000000815260040161081d92919061294a565b60405180910390fd5b610831838383610de1565b505050565b61083e610b99565b6108486000610e75565b565b610852610b99565b61085e84848484610f3b565b50505050565b6000600360009054906101000a900473ffffffffffffffffffffffffffffffffffffffff16905090565b6108a0610899610cb9565b8383610fd4565b5050565b600060046000838152602001908152602001600020549050919050565b6000600160008473ffffffffffffffffffffffffffffffffffffffff1673ffffffffffffffffffffffffffffffffffffffff16815260200190815260200160002060008373ffffffffffffffffffffffffffffffffffffffff1673ffffffffffffffffffffffffffffffffffffffff16815260200190815260200160002060009054906101000a900460ff16905092915050565b600061095f610cb9565b90508073ffffffffffffffffffffffffffffffffffffffff168673ffffffffffffffffffffffffffffffffffffffff16141580156109a457506109a286826108c1565b155b156109e85780866040517fe237d9220000000000000000000000000000000000000000000000000000000081526004016109df92919061294a565b60405180910390fd5b6109f58686868686611144565b505050505050565b610a05610b99565b600073ffffffffffffffffffffffffffffffffffffffff168173ffffffffffffffffffffffffffffffffffffffff1603610a775760006040517f1e4fbdf7000000000000000000000000000000000000000000000000000000008152600401610a6e919061270c565b60405180910390fd5b610a8081610e75565b50565b610a8b610cb9565b73ffffffffffffffffffffffffffffffffffffffff168373ffffffffffffffffffffffffffffffffffffffff1614158015610ad45750610ad283610acd610cb9565b6108c1565b155b15610b1f57610ae1610cb9565b836040517fe237d922000000000000000000000000000000000000000000000000000000008152600401610b1692919061294a565b60405180910390fd5b610b2a83838361124f565b505050565b60007f01ffc9a7000000000000000000000000000000000000000000000000000000007bffffffffffffffffffffffffffffffffffffffffffffffffffffffff1916827bffffffffffffffffffffffffffffffffffffffffffffffffffffffff1916149050919050565b610ba1610cb9565b73ffffffffffffffffffffffffffffffffffffffff16610bbf610864565b73ffffffffffffffffffffffffffffffffffffffff1614610c1e57610be2610cb9565b6040517f118cdaa7000000000000000000000000000000000000000000000000000000008152600401610c15919061270c565b60405180910390fd5b565b8060029081610c2f9190612bee565b5050565b600073ffffffffffffffffffffffffffffffffffffffff168473ffffffffffffffffffffffffffffffffffffffff1603610ca55760006040517f57f447ce000000000000000000000000000000000000000000000000000000008152600401610c9c919061270c565b60405180910390fd5b610cb36000858585856112f6565b50505050565b600033905090565b600073ffffffffffffffffffffffffffffffffffffffff168473ffffffffffffffffffffffffffffffffffffffff1603610d335760006040517f57f447ce000000000000000000000000000000000000000000000000000000008152600401610d2a919061270c565b60405180910390fd5b600073ffffffffffffffffffffffffffffffffffffffff168573ffffffffffffffffffffffffffffffffffffffff1603610da55760006040517f01a83514000000000000000000000000000000000000000000000000000000008152600401610d9c919061270c565b60405180910390fd5b610db285858585856112f6565b5050505050565b600060208202602084010151905092915050565b600060208202602084010151905092915050565b600073ffffffffffffffffffffffffffffffffffffffff168373ffffffffffffffffffffffffffffffffffffffff1603610e535760006040517f01a83514000000000000000000000000000000000000000000000000000000008152600401610e4a919061270c565b60405180910390fd5b610e708360008484604051806020016040528060008152506112f6565b505050565b6000600360009054906101000a900473ffffffffffffffffffffffffffffffffffffffff16905081600360006101000a81548173ffffffffffffffffffffffffffffffffffffffff021916908373ffffffffffffffffffffffffffffffffffffffff1602179055508173ffffffffffffffffffffffffffffffffffffffff168173ffffffffffffffffffffffffffffffffffffffff167f8be0079c531659141344cd1fd0a4f28419497f9722a3daafe3b4186f6b6457e060405160405180910390a35050565b600073ffffffffffffffffffffffffffffffffffffffff168473ffffffffffffffffffffffffffffffffffffffff1603610fad5760006040517f57f447ce000000000000000000000000000000000000000000000000000000008152600401610fa4919061270c565b60405180910390fd5b600080610fba85856113a8565b91509150610fcc6000878484876112f6565b505050505050565b600073ffffffffffffffffffffffffffffffffffffffff168273ffffffffffffffffffffffffffffffffffffffff16036110465760006040517fced3e10000000000000000000000000000000000000000000000000000000000815260040161103d919061270c565b60405180910390fd5b80600160008573ffffffffffffffffffffffffffffffffffffffff1673ffffffffffffffffffffffffffffffffffffffff16815260200190815260200160002060008473ffffffffffffffffffffffffffffffffffffffff1673ffffffffffffffffffffffffffffffffffffffff16815260200190815260200160002060006101000a81548160ff0219169083151502179055508173ffffffffffffffffffffffffffffffffffffffff168373ffffffffffffffffffffffffffffffffffffffff167f17307eab39ab6107e8899845ad3d59bd9653f200f220920489ca2b5937696c31836040516111379190611e69565b60405180910390a3505050565b600073ffffffffffffffffffffffffffffffffffffffff168473ffffffffffffffffffffffffffffffffffffffff16036111b65760006040517f57f447ce0000000000000000000000000000000000000000000000000000000081526004016111ad919061270c565b60405180910390fd5b600073ffffffffffffffffffffffffffffffffffffffff168573ffffffffffffffffffffffffffffffffffffffff16036112285760006040517f01a8351400000000000000000000000000000000000000000000000000000000815260040161121f919061270c565b60405180910390fd5b60008061123585856113a8565b9150915061124687878484876112f6565b50505050505050565b600073ffffffffffffffffffffffffffffffffffffffff168373ffffffffffffffffffffffffffffffffffffffff16036112c15760006040517f01a835140000000000000000000000000000000000000000000000000000000081526004016112b8919061270c565b60405180910390fd5b6000806112ce84846113a8565b915091506112ef8560008484604051806020016040528060008152506112f6565b5050505050565b611302858585856113d8565b600073ffffffffffffffffffffffffffffffffffffffff168473ffffffffffffffffffffffffffffffffffffffff16146113a1576000611340610cb9565b90506001845103611390576000611361600086610dcd90919063ffffffff16565b90506000611379600086610dcd90919063ffffffff16565b90506113898389898585896113ea565b505061139f565b61139e81878787878761159e565b5b505b5050505050565b60608060405191506001825283602083015260408201905060018152826020820152604081016040529250929050565b6113e484848484611752565b50505050565b60008473ffffffffffffffffffffffffffffffffffffffff163b1115611596578373ffffffffffffffffffffffffffffffffffffffff1663f23a6e6187878686866040518663ffffffff1660e01b815260040161144b959493929190612d15565b6020604051808303816000875af192505050801561148757506040513d601f19601f820116820180604052508101906114849190612d84565b60015b61150b573d80600081146114b7576040519150601f19603f3d011682016040523d82523d6000602084013e6114bc565b606091505b50600081510361150357846040517f57f447ce0000000000000000000000000000000000000000000000000000000081526004016114fa919061270c565b60405180910390fd5b805181602001fd5b63f23a6e6160e01b7bffffffffffffffffffffffffffffffffffffffffffffffffffffffff1916817bffffffffffffffffffffffffffffffffffffffffffffffffffffffff19161461159457846040517f57f447ce00000000000000000000000000000000000000000000000000000000815260040161158b919061270c565b60405180910390fd5b505b505050505050565b60008473ffffffffffffffffffffffffffffffffffffffff163b111561174a578373ffffffffffffffffffffffffffffffffffffffff1663bc197c8187878686866040518663ffffffff1660e01b81526004016115ff959493929190612db1565b6020604051808303816000875af192505050801561163b57506040513d601f19601f820116820180604052508101906116389190612d84565b60015b6116bf573d806000811461166b576040519150601f19603f3d011682016040523d82523d6000602084013e611670565b606091505b5060008151036116b757846040517f57f447ce0000000000000000000000000000000000000000000000000000000081526004016116ae919061270c565b60405180910390fd5b805181602001fd5b63bc197c8160e01b7bffffffffffffffffffffffffffffffffffffffffffffffffffffffff1916817bffffffffffffffffffffffffffffffffffffffffffffffffffffffff19161461174857846040517f57f447ce00000000000000000000000000000000000000000000000000000000815260040161173f919061270c565b60405180910390fd5b505b505050505050565b61175e84848484611909565b600073ffffffffffffffffffffffffffffffffffffffff168473ffffffffffffffffffffffffffffffffffffffff160361183e576000805b83518110156118225760008382815181106117b4576117b361299c565b5b6020026020010151905080600460008785815181106117d6576117d561299c565b5b6020026020010151815260200190815260200160002060008282546117fb9190612e19565b92505081905550808361180e9190612e19565b9250508061181b906129fa565b9050611796565b5080600560008282546118359190612e19565b92505081905550505b600073ffffffffffffffffffffffffffffffffffffffff168373ffffffffffffffffffffffffffffffffffffffff1603611903576000805b83518110156118f05760008382815181106118945761189361299c565b5b6020026020010151905080600460008785815181106118b6576118b561299c565b5b6020026020010151815260200190815260200160002060008282540392505081905550808301925050806118e9906129fa565b9050611876565b5080600560008282540392505081905550505b50505050565b805182511461195357815181516040517f5b05999100000000000000000000000000000000000000000000000000000000815260040161194a929190612973565b60405180910390fd5b600061195d610cb9565b905060005b8351811015611b725760006119808286610dcd90919063ffffffff16565b905060006119978386610dcd90919063ffffffff16565b9050600073ffffffffffffffffffffffffffffffffffffffff168873ffffffffffffffffffffffffffffffffffffffff1614611ac457600080600084815260200190815260200160002060008a73ffffffffffffffffffffffffffffffffffffffff1673ffffffffffffffffffffffffffffffffffffffff16815260200190815260200160002054905081811015611a6c57888183856040517f03dee4c5000000000000000000000000000000000000000000000000000000008152600401611a639493929190612e4d565b60405180910390fd5b81810360008085815260200190815260200160002060008b73ffffffffffffffffffffffffffffffffffffffff1673ffffffffffffffffffffffffffffffffffffffff16815260200190815260200160002081905550505b600073ffffffffffffffffffffffffffffffffffffffff168773ffffffffffffffffffffffffffffffffffffffff1614611b5f578060008084815260200190815260200160002060008973ffffffffffffffffffffffffffffffffffffffff1673ffffffffffffffffffffffffffffffffffffffff1681526020019081526020016000206000828254611b579190612e19565b925050819055505b505080611b6b906129fa565b9050611962565b506001835103611c31576000611b92600085610dcd90919063ffffffff16565b90506000611baa600085610dcd90919063ffffffff16565b90508573ffffffffffffffffffffffffffffffffffffffff168773ffffffffffffffffffffffffffffffffffffffff168473ffffffffffffffffffffffffffffffffffffffff167fc3d58168c5ae7397731d063d5bbf3d657854427343f4c083240f7aacaa2d0f628585604051611c22929190612973565b60405180910390a45050611cb0565b8373ffffffffffffffffffffffffffffffffffffffff168573ffffffffffffffffffffffffffffffffffffffff168273ffffffffffffffffffffffffffffffffffffffff167f4a39dc06d4c0dbc64b70af90fd698a233a518aa5d07e595d983b8c0526c8f7fb8686604051611ca7929190612e92565b60405180910390a45b5050505050565b6000604051905090565b600080fd5b600080fd5b600073ffffffffffffffffffffffffffffffffffffffff82169050919050565b6000611cf682611ccb565b9050919050565b611d0681611ceb565b8114611d1157600080fd5b50565b600081359050611d2381611cfd565b92915050565b6000819050919050565b611d3c81611d29565b8114611d4757600080fd5b50565b600081359050611d5981611d33565b92915050565b60008060408385031215611d7657611d75611cc1565b5b6000611d8485828601611d14565b9250506020611d9585828601611d4a565b9150509250929050565b611da881611d29565b82525050565b6000602082019050611dc36000830184611d9f565b92915050565b60007fffffffff0000000000000000000000000000000000000000000000000000000082169050919050565b611dfe81611dc9565b8114611e0957600080fd5b50565b600081359050611e1b81611df5565b92915050565b600060208284031215611e3757611e36611cc1565b5b6000611e4584828501611e0c565b91505092915050565b60008115159050919050565b611e6381611e4e565b82525050565b6000602082019050611e7e6000830184611e5a565b92915050565b600080fd5b600080fd5b6000601f19601f8301169050919050565b7f4e487b7100000000000000000000000000000000000000000000000000000000600052604160045260246000fd5b611ed782611e8e565b810181811067ffffffffffffffff82111715611ef657611ef5611e9f565b5b80604052505050565b6000611f09611cb7565b9050611f158282611ece565b919050565b600067ffffffffffffffff821115611f3557611f34611e9f565b5b611f3e82611e8e565b9050602081019050919050565b82818337600083830152505050565b6000611f6d611f6884611f1a565b611eff565b905082815260208101848484011115611f8957611f88611e89565b5b611f94848285611f4b565b509392505050565b600082601f830112611fb157611fb0611e84565b5b8135611fc1848260208601611f5a565b91505092915050565b600060208284031215611fe057611fdf611cc1565b5b600082013567ffffffffffffffff811115611ffe57611ffd611cc6565b5b61200a84828501611f9c565b91505092915050565b60006020828403121561202957612028611cc1565b5b600061203784828501611d4a565b91505092915050565b600081519050919050565b600082825260208201905092915050565b60005b8381101561207a57808201518184015260208101905061205f565b60008484015250505050565b600061209182612040565b61209b818561204b565b93506120ab81856020860161205c565b6120b481611e8e565b840191505092915050565b600060208201905081810360008301526120d98184612086565b905092915050565b600067ffffffffffffffff8211156120fc576120fb611e9f565b5b602082029050602081019050919050565b600080fd5b6000612125612120846120e1565b611eff565b905080838252602082019050602084028301858111156121485761214761210d565b5b835b81811015612171578061215d8882611d4a565b84526020840193505060208101905061214a565b5050509392505050565b600082601f8301126121905761218f611e84565b5b81356121a0848260208601612112565b91505092915050565b600067ffffffffffffffff8211156121c4576121c3611e9f565b5b6121cd82611e8e565b9050602081019050919050565b60006121ed6121e8846121a9565b611eff565b90508281526020810184848401111561220957612208611e89565b5b612214848285611f4b565b509392505050565b600082601f83011261223157612230611e84565b5b81356122418482602086016121da565b91505092915050565b6000806000806080858703121561226457612263611cc1565b5b600061227287828801611d14565b945050602085013567ffffffffffffffff81111561229357612292611cc6565b5b61229f8782880161217b565b935050604085013567ffffffffffffffff8111156122c0576122bf611cc6565b5b6122cc8782880161217b565b925050606085013567ffffffffffffffff8111156122ed576122ec611cc6565b5b6122f98782880161221c565b91505092959194509250565b600080600080600060a0868803121561232157612320611cc1565b5b600061232f88828901611d14565b955050602061234088828901611d14565b945050604086013567ffffffffffffffff81111561236157612360611cc6565b5b61236d8882890161217b565b935050606086013567ffffffffffffffff81111561238e5761238d611cc6565b5b61239a8882890161217b565b925050608086013567ffffffffffffffff8111156123bb576123ba611cc6565b5b6123c78882890161221c565b9150509295509295909350565b600067ffffffffffffffff8211156123ef576123ee611e9f565b5b602082029050602081019050919050565b600061241361240e846123d4565b611eff565b905080838252602082019050602084028301858111156124365761243561210d565b5b835b8181101561245f578061244b8882611d14565b845260208401935050602081019050612438565b5050509392505050565b600082601f83011261247e5761247d611e84565b5b813561248e848260208601612400565b91505092915050565b600080604083850312156124ae576124ad611cc1565b5b600083013567ffffffffffffffff8111156124cc576124cb611cc6565b5b6124d885828601612469565b925050602083013567ffffffffffffffff8111156124f9576124f8611cc6565b5b6125058582860161217b565b9150509250929050565b600081519050919050565b600082825260208201905092915050565b6000819050602082019050919050565b61254481611d29565b82525050565b6000612556838361253b565b60208301905092915050565b6000602082019050919050565b600061257a8261250f565b612584818561251a565b935061258f8361252b565b8060005b838110156125c05781516125a7888261254a565b97506125b283612562565b925050600181019050612593565b5085935050505092915050565b600060208201905081810360008301526125e7818461256f565b905092915050565b60008060006060848603121561260857612607611cc1565b5b600061261686828701611d14565b935050602084013567ffffffffffffffff81111561263757612636611cc6565b5b6126438682870161217b565b925050604084013567ffffffffffffffff81111561266457612663611cc6565b5b6126708682870161217b565b9150509250925092565b6000806000806080858703121561269457612693611cc1565b5b60006126a287828801611d14565b94505060206126b387828801611d4a565b93505060406126c487828801611d4a565b925050606085013567ffffffffffffffff8111156126e5576126e4611cc6565b5b6126f18782880161221c565b91505092959194509250565b61270681611ceb565b82525050565b600060208201905061272160008301846126fd565b92915050565b61273081611e4e565b811461273b57600080fd5b50565b60008135905061274d81612727565b92915050565b6000806040838503121561276a57612769611cc1565b5b600061277885828601611d14565b92505060206127898582860161273e565b9150509250929050565b600080604083850312156127aa576127a9611cc1565b5b60006127b885828601611d14565b92505060206127c985828601611d14565b9150509250929050565b600080600080600060a086880312156127ef576127ee611cc1565b5b60006127fd88828901611d14565b955050602061280e88828901611d14565b945050604061281f88828901611d4a565b935050606061283088828901611d4a565b925050608086013567ffffffffffffffff81111561285157612850611cc6565b5b61285d8882890161221c565b9150509295509295909350565b6000602082840312156128805761287f611cc1565b5b600061288e84828501611d14565b91505092915050565b6000806000606084860312156128b0576128af611cc1565b5b60006128be86828701611d14565b93505060206128cf86828701611d4a565b92505060406128e086828701611d4a565b9150509250925092565b7f4e487b7100000000000000000000000000000000000000000000000000000000600052602260045260246000fd5b6000600282049050600182168061293157607f821691505b602082108103612944576129436128ea565b5b50919050565b600060408201905061295f60008301856126fd565b61296c60208301846126fd565b9392505050565b60006040820190506129886000830185611d9f565b6129956020830184611d9f565b9392505050565b7f4e487b7100000000000000000000000000000000000000000000000000000000600052603260045260246000fd5b7f4e487b7100000000000000000000000000000000000000000000000000000000600052601160045260246000fd5b6000612a0582611d29565b91507fffffffffffffffffffffffffffffffffffffffffffffffffffffffffffffffff8203612a3757612a366129cb565b5b600182019050919050565b60008190508160005260206000209050919050565b60006020601f8301049050919050565b600082821b905092915050565b600060088302612aa47fffffffffffffffffffffffffffffffffffffffffffffffffffffffffffffffff82612a67565b612aae8683612a67565b95508019841693508086168417925050509392505050565b6000819050919050565b6000612aeb612ae6612ae184611d29565b612ac6565b611d29565b9050919050565b6000819050919050565b612b0583612ad0565b612b19612b1182612af2565b848454612a74565b825550505050565b600090565b612b2e612b21565b612b39818484612afc565b505050565b5b81811015612b5d57612b52600082612b26565b600181019050612b3f565b5050565b601f821115612ba257612b7381612a42565b612b7c84612a57565b81016020851015612b8b578190505b612b9f612b9785612a57565b830182612b3e565b50505b505050565b600082821c905092915050565b6000612bc560001984600802612ba7565b1980831691505092915050565b6000612bde8383612bb4565b9150826002028217905092915050565b612bf782612040565b67ffffffffffffffff811115612c1057612c0f611e9f565b5b612c1a8254612919565b612c25828285612b61565b600060209050601f831160018114612c585760008415612c46578287015190505b612c508582612bd2565b865550612cb8565b601f198416612c6686612a42565b60005b82811015612c8e57848901518255600182019150602085019450602081019050612c69565b86831015612cab5784890151612ca7601f891682612bb4565b8355505b6001600288020188555050505b505050505050565b600081519050919050565b600082825260208201905092915050565b6000612ce782612cc0565b612cf18185612ccb565b9350612d0181856020860161205c565b612d0a81611e8e565b840191505092915050565b600060a082019050612d2a60008301886126fd565b612d3760208301876126fd565b612d446040830186611d9f565b612d516060830185611d9f565b8181036080830152612d638184612cdc565b90509695505050505050565b600081519050612d7e81611df5565b92915050565b600060208284031215612d9a57612d99611cc1565b5b6000612da884828501612d6f565b91505092915050565b600060a082019050612dc660008301886126fd565b612dd360208301876126fd565b8181036040830152612de5818661256f565b90508181036060830152612df9818561256f565b90508181036080830152612e0d8184612cdc565b90509695505050505050565b6000612e2482611d29565b9150612e2f83611d29565b9250828201905080821115612e4757612e466129cb565b5b92915050565b6000608082019050612e6260008301876126fd565b612e6f6020830186611d9f565b612e7c6040830185611d9f565b612e896060830184611d9f565b95945050505050565b60006040820190508181036000830152612eac818561256f565b90508181036020830152612ec0818461256f565b9050939250505056fea26469706673582212200ce03bb41f44723b24114cd377d8e60705c11e5a9265d56df6cbcc26c0ec177364736f6c63430008140033",
  "linkReferences": {},
  "deployedLinkReferences": {}
}